{"abi":[{"type":"constructor","inputs":[{"name":"_nfcRegistry","type":"address","internalType":"address"}],"stateMutability":"nonpayable"},{"type":"function","name":"MAX_CATS_PER_USER","inputs":[],"outputs":[{"name":"","type":"uint256","internalType":"uint256"}],"stateMutability":"view"},{"type":"function","name":"R_PROBABILITY","inputs":[],"outputs":[{"name":"","type":"uint256","internalType":"uint256"}],"stateMutability":"view"},{"type":"function","name":"SR_PROBABILITY","inputs":[],"outputs":[{"name":"","type":"uint256","internalType":"uint256"}],"stateMutability":"view"},{"type":"function","name":"SSR_PROBABILITY","inputs":[],"outputs":[{"name":"","type":"uint256","internalType":"uint256"}],"stateMutability":"view"},{"type":"function","name":"UR_PROBABILITY","inputs":[],"outputs":[{"name":"","type":"uint256","internalType":"uint256"}],"stateMutability":"view"},{"type":"function","name":"addDrawTickets","inputs":[{"name":"nfcUID","type":"string","internalType":"string"},{"name":"amount","type":"uint256","internalType":"uint256"}],"outputs":[],"stateMutability":"nonpayable"},{"type":"function","name":"approve","inputs":[{"name":"to","type":"address","internalType":"address"},{"name":"tokenId","type":"uint256","internalType":"uint256"}],"outputs":[],"stateMutability":"nonpayable"},{"type":"function","name":"authorizeNewNFCUser","inputs":[{"name":"nfcUID","type":"string","internalType":"string"},{"name":"userWallet","type":"address","internalType":"address"}],"outputs":[],"stateMutability":"nonpayable"},{"type":"function","name":"authorizedOperators","inputs":[{"name":"","type":"address","internalType":"address"}],"outputs":[{"name":"","type":"bool","internalType":"bool"}],"stateMutability":"view"},{"type":"function","name":"balanceOf","inputs":[{"name":"owner","type":"address","internalType":"address"}],"outputs":[{"name":"","type":"uint256","internalType":"uint256"}],"stateMutability":"view"},{"type":"function","name":"batchAddDrawTickets","inputs":[{"name":"nfcUIDs","type":"string[]","internalType":"string[]"},{"name":"amounts","type":"uint256[]","internalType":"uint256[]"}],"outputs":[],"stateMutability":"nonpayable"},{"type":"function","name":"batchSetAuthorizedOperators","inputs":[{"name":"operators","type":"address[]","internalType":"address[]"},{"name":"authorizations","type":"bool[]","internalType":"bool[]"}],"outputs":[],"stateMutability":"nonpayable"},{"type":"function","name":"catInfos","inputs":[{"name":"","type":"uint256","internalType":"uint256"}],"outputs":[{"name":"name","type":"string","internalType":"string"},{"name":"rarity","type":"uint8","internalType":"enum CatNFT.CatRarity"},{"name":"color","type":"string","internalType":"string"},{"name":"mintedAt","type":"uint256","internalType":"uint256"},{"name":"metadata","type":"string","internalType":"string"}],"stateMutability":"view"},{"type":"function","name":"drawCatNFTWithTickets","inputs":[{"name":"nfcUID","type":"string","internalType":"string"},{"name":"catName","type":"string","internalType":"string"}],"outputs":[],"stateMutability":"payable"},{"type":"function","name":"drawCatNFTWithTicketsWithSig","inputs":[{"name":"nfcUID","type":"string","internalType":"string"},{"name":"catName","type":"string","internalType":"string"},{"name":"wallet","type":"address","internalType":"address"},{"name":"deadline","type":"uint256","internalType":"uint256"},{"name":"nonce","type":"uint256","internalType":"uint256"},{"name":"signature","type":"bytes","internalType":"bytes"}],"outputs":[],"stateMutability":"payable"},{"type":"function","name":"drawCounts","inputs":[{"name":"","type":"string","internalType":"string"}],"outputs":[{"name":"","type":"uint256","internalType":"uint256"}],"stateMutability":"view"},{"type":"function","name":"drawFee","inputs":[],"outputs":[{"name":"","type":"uint256","internalType":"uint256"}],"stateMutability":"view"},{"type":"function","name":"emergencyPause","inputs":[],"outputs":[],"stateMutability":"nonpayable"},{"type":"function","name":"emergencyResetInteraction","inputs":[{"name":"nfc1","type":"string","internalType":"string"},{"name":"nfc2","type":"string","internalType":"string"}],"outputs":[],"stateMutability":"nonpayable"},{"type":"function","name":"emergencyResume","inputs":[],"outputs":[],"stateMutability":"nonpayable"},{"type":"function","name":"getApproved","inputs":[{"name":"tokenId","type":"uint256","internalType":"uint256"}],"outputs":[{"name":"","type":"address","internalType":"address"}],"stateMutability":"view"},{"type":"function","name":"getAvailableDrawCount","inputs":[{"name":"nfcUID","type":"string","internalType":"string"}],"outputs":[{"name":"","type":"uint256","internalType":"uint256"}],"stateMutability":"view"},{"type":"function","name":"getCatInfo","inputs":[{"name":"tokenId","type":"uint256","internalType":"uint256"}],"outputs":[{"name":"","type":"tuple","internalType":"struct CatNFT.CatInfo","components":[{"name":"name","type":"string","internalType":"string"},{"name":"rarity","type":"uint8","internalType":"enum CatNFT.CatRarity"},{"name":"color","type":"string","internalType":"string"},{"name":"mintedAt","type":"uint256","internalType":"uint256"},{"name":"metadata","type":"string","internalType":"string"}]}],"stateMutability":"view"},{"type":"function","name":"getDrawStats","inputs":[{"name":"nfcUID","type":"string","internalType":"string"}],"outputs":[{"name":"available","type":"uint256","internalType":"uint256"},{"name":"used","type":"uint256","internalType":"uint256"},{"name":"total","type":"uint256","internalType":"uint256"}],"stateMutability":"view"},{"type":"function","name":"getInteractedNFCs","inputs":[{"name":"nfcUID","type":"string","internalType":"string"}],"outputs":[{"name":"","type":"string[]","internalType":"string[]"}],"stateMutability":"view"},{"type":"function","name":"getNonce","inputs":[{"name":"wallet","type":"address","internalType":"address"}],"outputs":[{"name":"","type":"uint256","internalType":"uint256"}],"stateMutability":"view"},{"type":"function","name":"getRainbowCatTokenId","inputs":[],"outputs":[{"name":"","type":"uint256","internalType":"uint256"}],"stateMutability":"view"},{"type":"function","name":"getRarityCounts","inputs":[],"outputs":[{"name":"rCount","type":"uint256","internalType":"uint256"},{"name":"srCount","type":"uint256","internalType":"uint256"},{"name":"ssrCount","type":"uint256","internalType":"uint256"},{"name":"urCount","type":"uint256","internalType":"uint256"}],"stateMutability":"view"},{"type":"function","name":"getSocialBonus","inputs":[{"name":"nfcUID","type":"string","internalType":"string"}],"outputs":[{"name":"","type":"uint256","internalType":"uint256"}],"stateMutability":"view"},{"type":"function","name":"getTotalDrawsUsed","inputs":[{"name":"nfcUID","type":"string","internalType":"string"}],"outputs":[{"name":"","type":"uint256","internalType":"uint256"}],"stateMutability":"view"},{"type":"function","name":"getUserCats","inputs":[{"name":"user","type":"address","internalType":"address"}],"outputs":[{"name":"","type":"uint256[]","internalType":"uint256[]"}],"stateMutability":"view"},{"type":"function","name":"hasInteracted","inputs":[{"name":"nfc1","type":"string","internalType":"string"},{"name":"nfc2","type":"string","internalType":"string"}],"outputs":[{"name":"","type":"bool","internalType":"bool"}],"stateMutability":"view"},{"type":"function","name":"interactedNFCs","inputs":[{"name":"","type":"string","internalType":"string"},{"name":"","type":"uint256","internalType":"uint256"}],"outputs":[{"name":"","type":"string","internalType":"string"}],"stateMutability":"view"},{"type":"function","name":"isApprovedForAll","inputs":[{"name":"owner","type":"address","internalType":"address"},{"name":"operator","type":"address","internalType":"address"}],"outputs":[{"name":"","type":"bool","internalType":"bool"}],"stateMutability":"view"},{"type":"function","name":"isColorUsed","inputs":[{"name":"color","type":"string","internalType":"string"}],"outputs":[{"name":"","type":"bool","internalType":"bool"}],"stateMutability":"view"},{"type":"function","name":"isRainbowCatMinted","inputs":[],"outputs":[{"name":"","type":"bool","internalType":"bool"}],"stateMutability":"view"},{"type":"function","name":"name","inputs":[],"outputs":[{"name":"","type":"string","internalType":"string"}],"stateMutability":"view"},{"type":"function","name":"nfcRegistry","inputs":[],"outputs":[{"name":"","type":"address","internalType":"contract INFCWalletRegistry"}],"stateMutability":"view"},{"type":"function","name":"nonces","inputs":[{"name":"","type":"address","internalType":"address"}],"outputs":[{"name":"","type":"uint256","internalType":"uint256"}],"stateMutability":"view"},{"type":"function","name":"owner","inputs":[],"outputs":[{"name":"","type":"address","internalType":"address"}],"stateMutability":"view"},{"type":"function","name":"ownerOf","inputs":[{"name":"tokenId","type":"uint256","internalType":"uint256"}],"outputs":[{"name":"","type":"address","internalType":"address"}],"stateMutability":"view"},{"type":"function","name":"rainbowCatMinted","inputs":[],"outputs":[{"name":"","type":"bool","internalType":"bool"}],"stateMutability":"view"},{"type":"function","name":"rainbowCatTokenId","inputs":[],"outputs":[{"name":"","type":"uint256","internalType":"uint256"}],"stateMutability":"view"},{"type":"function","name":"rarityCounts","inputs":[{"name":"","type":"uint8","internalType":"enum CatNFT.CatRarity"}],"outputs":[{"name":"","type":"uint256","internalType":"uint256"}],"stateMutability":"view"},{"type":"function","name":"renounceOwnership","inputs":[],"outputs":[],"stateMutability":"nonpayable"},{"type":"function","name":"safeTransferFrom","inputs":[{"name":"from","type":"address","internalType":"address"},{"name":"to","type":"address","internalType":"address"},{"name":"tokenId","type":"uint256","internalType":"uint256"}],"outputs":[],"stateMutability":"nonpayable"},{"type":"function","name":"safeTransferFrom","inputs":[{"name":"from","type":"address","internalType":"address"},{"name":"to","type":"address","internalType":"address"},{"name":"tokenId","type":"uint256","internalType":"uint256"},{"name":"data","type":"bytes","internalType":"bytes"}],"outputs":[],"stateMutability":"nonpayable"},{"type":"function","name":"setApprovalForAll","inputs":[{"name":"operator","type":"address","internalType":"address"},{"name":"approved","type":"bool","internalType":"bool"}],"outputs":[],"stateMutability":"nonpayable"},{"type":"function","name":"setAuthorizedOperator","inputs":[{"name":"operator","type":"address","internalType":"address"},{"name":"authorized","type":"bool","internalType":"bool"}],"outputs":[],"stateMutability":"nonpayable"},{"type":"function","name":"setDrawFee","inputs":[{"name":"newFee","type":"uint256","internalType":"uint256"}],"outputs":[],"stateMutability":"nonpayable"},{"type":"function","name":"setNFCRegistry","inputs":[{"name":"_nfcRegistry","type":"address","internalType":"address"}],"outputs":[],"stateMutability":"nonpayable"},{"type":"function","name":"setSocialInteractionReward","inputs":[{"name":"newReward","type":"uint256","internalType":"uint256"}],"outputs":[],"stateMutability":"nonpayable"},{"type":"function","name":"socialInteraction","inputs":[{"name":"myNFC","type":"string","internalType":"string"},{"name":"otherNFC","type":"string","internalType":"string"}],"outputs":[],"stateMutability":"nonpayable"},{"type":"function","name":"socialInteractionReward","inputs":[],"outputs":[{"name":"","type":"uint256","internalType":"uint256"}],"stateMutability":"view"},{"type":"function","name":"socialInteractionWithSig","inputs":[{"name":"myNFC","type":"string","internalType":"string"},{"name":"otherNFC","type":"string","internalType":"string"},{"name":"wallet","type":"address","internalType":"address"},{"name":"deadline","type":"uint256","internalType":"uint256"},{"name":"nonce","type":"uint256","internalType":"uint256"},{"name":"signature","type":"bytes","internalType":"bytes"}],"outputs":[],"stateMutability":"nonpayable"},{"type":"function","name":"socialInteractions","inputs":[{"name":"","type":"string","internalType":"string"},{"name":"","type":"string","internalType":"string"}],"outputs":[{"name":"","type":"bool","internalType":"bool"}],"stateMutability":"view"},{"type":"function","name":"supportsInterface","inputs":[{"name":"interfaceId","type":"bytes4","internalType":"bytes4"}],"outputs":[{"name":"","type":"bool","internalType":"bool"}],"stateMutability":"view"},{"type":"function","name":"symbol","inputs":[],"outputs":[{"name":"","type":"string","internalType":"string"}],"stateMutability":"view"},{"type":"function","name":"tokenURI","inputs":[{"name":"tokenId","type":"uint256","internalType":"uint256"}],"outputs":[{"name":"","type":"string","internalType":"string"}],"stateMutability":"view"},{"type":"function","name":"totalDrawsUsed","inputs":[{"name":"","type":"string","internalType":"string"}],"outputs":[{"name":"","type":"uint256","internalType":"uint256"}],"stateMutability":"view"},{"type":"function","name":"transferCatNFT","inputs":[{"name":"tokenId","type":"uint256","internalType":"uint256"},{"name":"to","type":"address","internalType":"address"}],"outputs":[],"stateMutability":"nonpayable"},{"type":"function","name":"transferFrom","inputs":[{"name":"from","type":"address","internalType":"address"},{"name":"to","type":"address","internalType":"address"},{"name":"tokenId","type":"uint256","internalType":"uint256"}],"outputs":[],"stateMutability":"nonpayable"},{"type":"function","name":"transferOwnership","inputs":[{"name":"newOwner","type":"address","internalType":"address"}],"outputs":[],"stateMutability":"nonpayable"},{"type":"function","name":"updateCatMetadata","inputs":[{"name":"tokenId","type":"uint256","internalType":"uint256"},{"name":"metadata","type":"string","internalType":"string"}],"outputs":[],"stateMutability":"nonpayable"},{"type":"function","name":"usedColors","inputs":[{"name":"","type":"string","internalType":"string"}],"outputs":[{"name":"","type":"bool","internalType":"bool"}],"stateMutability":"view"},{"type":"function","name":"userCats","inputs":[{"name":"","type":"address","internalType":"address"},{"name":"","type":"uint256","internalType":"uint256"}],"outputs":[{"name":"","type":"uint256","internalType":"uint256"}],"stateMutability":"view"},{"type":"function","name":"withdraw","inputs":[],"outputs":[],"stateMutability":"nonpayable"},{"type":"event","name":"Approval","inputs":[{"name":"owner","type":"address","indexed":true,"internalType":"address"},{"name":"approved","type":"address","indexed":true,"internalType":"address"},{"name":"tokenId","type":"uint256","indexed":true,"internalType":"uint256"}],"anonymous":false},{"type":"event","name":"ApprovalForAll","inputs":[{"name":"owner","type":"address","indexed":true,"internalType":"address"},{"name":"operator","type":"address","indexed":true,"internalType":"address"},{"name":"approved","type":"bool","indexed":false,"internalType":"bool"}],"anonymous":false},{"type":"event","name":"BatchMetadataUpdate","inputs":[{"name":"_fromTokenId","type":"uint256","indexed":false,"internalType":"uint256"},{"name":"_toTokenId","type":"uint256","indexed":false,"internalType":"uint256"}],"anonymous":false},{"type":"event","name":"CatDrawnWithTickets","inputs":[{"name":"tokenId","type":"uint256","indexed":true,"internalType":"uint256"},{"name":"catName","type":"string","indexed":true,"internalType":"string"},{"name":"rarity","type":"uint8","indexed":false,"internalType":"enum CatNFT.CatRarity"},{"name":"color","type":"string","indexed":false,"internalType":"string"},{"name":"owner","type":"address","indexed":true,"internalType":"address"},{"name":"nfcUID","type":"string","indexed":false,"internalType":"string"},{"name":"remainingTickets","type":"uint256","indexed":false,"internalType":"uint256"}],"anonymous":false},{"type":"event","name":"CatNFTMinted","inputs":[{"name":"tokenId","type":"uint256","indexed":true,"internalType":"uint256"},{"name":"name","type":"string","indexed":true,"internalType":"string"},{"name":"rarity","type":"uint8","indexed":false,"internalType":"enum CatNFT.CatRarity"},{"name":"color","type":"string","indexed":false,"internalType":"string"},{"name":"owner","type":"address","indexed":true,"internalType":"address"},{"name":"mintedAt","type":"uint256","indexed":false,"internalType":"uint256"}],"anonymous":false},{"type":"event","name":"CatNFTTransferred","inputs":[{"name":"tokenId","type":"uint256","indexed":true,"internalType":"uint256"},{"name":"name","type":"string","indexed":true,"internalType":"string"},{"name":"from","type":"address","indexed":true,"internalType":"address"},{"name":"to","type":"address","indexed":false,"internalType":"address"}],"anonymous":false},{"type":"event","name":"MetadataUpdate","inputs":[{"name":"_tokenId","type":"uint256","indexed":false,"internalType":"uint256"}],"anonymous":false},{"type":"event","name":"NFCRegistryUpdated","inputs":[{"name":"oldRegistry","type":"address","indexed":true,"internalType":"address"},{"name":"newRegistry","type":"address","indexed":true,"internalType":"address"}],"anonymous":false},{"type":"event","name":"OperatorAuthorized","inputs":[{"name":"operator","type":"address","indexed":true,"internalType":"address"},{"name":"authorized","type":"bool","indexed":false,"internalType":"bool"}],"anonymous":false},{"type":"event","name":"OwnershipTransferred","inputs":[{"name":"previousOwner","type":"address","indexed":true,"internalType":"address"},{"name":"newOwner","type":"address","indexed":true,"internalType":"address"}],"anonymous":false},{"type":"event","name":"RainbowCatFound","inputs":[{"name":"tokenId","type":"uint256","indexed":true,"internalType":"uint256"},{"name":"name","type":"string","indexed":true,"internalType":"string"},{"name":"finder","type":"address","indexed":true,"internalType":"address"},{"name":"mintedAt","type":"uint256","indexed":false,"internalType":"uint256"}],"anonymous":false},{"type":"event","name":"SocialInteractionCompleted","inputs":[{"name":"myNFC","type":"string","indexed":true,"internalType":"string"},{"name":"otherNFC","type":"string","indexed":true,"internalType":"string"},{"name":"rewardedDraws","type":"uint256","indexed":false,"internalType":"uint256"},{"name":"totalDrawsAvailable","type":"uint256","indexed":false,"internalType":"uint256"}],"anonymous":false},{"type":"event","name":"Transfer","inputs":[{"name":"from","type":"address","indexed":true,"internalType":"address"},{"name":"to","type":"address","indexed":true,"internalType":"address"},{"name":"tokenId","type":"uint256","indexed":true,"internalType":"uint256"}],"anonymous":false},{"type":"error","name":"ERC721IncorrectOwner","inputs":[{"name":"sender","type":"address","internalType":"address"},{"name":"tokenId","type":"uint256","internalType":"uint256"},{"name":"owner","type":"address","internalType":"address"}]},{"type":"error","name":"ERC721InsufficientApproval","inputs":[{"name":"operator","type":"address","internalType":"address"},{"name":"tokenId","type":"uint256","internalType":"uint256"}]},{"type":"error","name":"ERC721InvalidApprover","inputs":[{"name":"approver","type":"address","internalType":"address"}]},{"type":"error","name":"ERC721InvalidOperator","inputs":[{"name":"operator","type":"address","internalType":"address"}]},{"type":"error","name":"ERC721InvalidOwner","inputs":[{"name":"owner","type":"address","internalType":"address"}]},{"type":"error","name":"ERC721InvalidReceiver","inputs":[{"name":"receiver","type":"address","internalType":"address"}]},{"type":"error","name":"ERC721InvalidSender","inputs":[{"name":"sender","type":"address","internalType":"address"}]},{"type":"error","name":"ERC721NonexistentToken","inputs":[{"name":"tokenId","type":"uint256","internalType":"uint256"}]},{"type":"error","name":"OwnableInvalidOwner","inputs":[{"name":"owner","type":"address","internalType":"address"}]},{"type":"error","name":"OwnableUnauthorizedAccount","inputs":[{"name":"account","type":"address","internalType":"address"}]},{"type":"error","name":"ReentrancyGuardReentrantCall","inputs":[]}],"bytecode":{"object":"0x6080604052346104105761479f6020813803918261001c81610414565b93849283398101031261041057516001600160a01b03811690819003610410576100466040610414565b90600782526610d85d0813919560ca1b60208301526100656040610414565b600381526210d05560ea1b602082015282519091906001600160401b038111610324575f54600181811c91168015610406575b602082101461030657601f81116103a4575b506020601f821160011461034357819293945f92610338575b50508160011b915f199060031b1c1916175f555b81516001600160401b03811161032457600154600181811c9116801561031a575b602082101461030657601f81116102a3575b50602092601f821160011461024257928192935f92610237575b50508160011b915f199060031b1c1916176001555b33156102245760078054336001600160a01b03198216811790925560405191906001600160a01b03167f8be0079c531659141344cd1fd0a4f28419497f9722a3daafe3b4186f6b6457e05f80a3600160085566038d7ea4c68000601255600160135560ff196017541660175581156101e2575060018060a01b03196014541617601455335f52601560205260405f20600160ff19825416179055604051614365908161043a8239f35b62461bcd60e51b815260206004820152601c60248201527f496e76616c6964204e46432072656769737472792061646472657373000000006044820152606490fd5b631e4fbdf760e01b5f525f60045260245ffd5b015190505f80610124565b601f1982169360015f52805f20915f5b86811061028b5750836001959610610273575b505050811b01600155610139565b01515f1960f88460031b161c191690555f8080610265565b91926020600181928685015181550194019201610252565b60015f527fb10e2d527612073b26eecdfd717e6a320cf44b4afac2b0732d9fcbe2b7fa0cf6601f830160051c810191602084106102fc575b601f0160051c01905b8181106102f1575061010a565b5f81556001016102e4565b90915081906102db565b634e487b7160e01b5f52602260045260245ffd5b90607f16906100f8565b634e487b7160e01b5f52604160045260245ffd5b015190505f806100c3565b601f198216905f8052805f20915f5b81811061038c57509583600195969710610374575b505050811b015f556100d7565b01515f1960f88460031b161c191690555f8080610367565b9192602060018192868b015181550194019201610352565b5f80527f290decd9548b62a8d60345a988386fc84ba6bc95484008f6362f93160ef3e563601f830160051c810191602084106103fc575b601f0160051c01905b8181106103f157506100aa565b5f81556001016103e4565b90915081906103db565b90607f1690610098565b5f80fd5b6040519190601f01601f191682016001600160401b038111838210176103245760405256fe60806040526004361015610011575f80fd5b5f3560e01c806301ffc9a71461042157806306fdde031461041c578063081812fc14610417578063095ea7b3146104125780631715b8c61461040d578063181d989b146104085780631f71bab4146104035780631fa0783e146103fe57806323b872dd146103f95780632d0335ab1461038b578063310c71ae146103f4578063320b27cb146103ef57806333ce3dbe146103ea57806334ded72d146103e557806338ee1b30146103e05780633a06831c146103db5780633ccfd60b146103d65780633ed24510146103d157806342842e0e146103cc57806348c5f80e1461038657806351858e2714610372578063554d1952146103c757806358e1ac23146103c2578063594fd73c146103bd5780635de32ef5146103b85780635ec9b71b146103b35780636352211e146103ae5780636a6b9ec2146103a95780636c569d58146103a45780636c5ef2dc1461039f57806370a082311461039a578063715018a61461039557806374f796ce14610331578063788f737d146103905780637ecebe001461038b57806386d1708414610386578063879709a1146103815780638da5cb5b1461037c5780638df2de251461037757806393c87f0314610372578063945b27951461036d57806395d89b41146103685780639ab5958c146103635780639cb4a0db14610313578063a22cb4651461035e578063a252ea4514610359578063a3fbbb7414610354578063a4fc1a131461034f578063aef27bf81461034a578063b88d4fde14610345578063bb28fdbb14610340578063c08ee6ca1461032c578063c75da8d51461033b578063c76ea15f14610309578063c87b56dd14610336578063ce5d793014610331578063d4924afc1461032c578063d75e30cf14610327578063e0ac3d3c14610322578063e76972651461031d578063e985e9c514610318578063ee72747014610313578063f2fde38b1461030e578063f9be195514610309578063faca830514610304578063fb00ef54146102ff5763fe28c675146102fa575f80fd5b612ae0565b612ac3565b612a4c565b612745565b612963565b6121be565b61290b565b6127d7565b6127a6565b612789565b6126fa565b611b41565b61276a565b612724565b612634565b61257b565b61238f565b612333565b612302565b61227f565b6121e3565b61215d565b6120b8565b611e82565b611300565b611d54565b611d2c565b611c7b565b6112e5565b610a20565b611b92565b611ae6565b611a91565b611a57565b611a11565b611644565b611614565b6114e1565b611417565b611390565b611334565b611318565b6112b0565b611200565b6111be565b611196565b610eb6565b610e48565b610dad565b610d1d565b610a94565b610a09565b610970565b610788565b610748565b61072c565b610621565b6105d4565b6104fd565b61043c565b6001600160e01b031981160361043857565b5f80fd5b346104385760203660031901126104385760043561045981610426565b63ffffffff60e01b16632483248360e11b8114908115610482575b506040519015158152602090f35b6380ac58cd60e01b8114915081156104b4575b81156104a3575b505f610474565b6301ffc9a760e01b1490505f61049c565b635b5e139f60e01b81149150610495565b805180835260209291819084018484015e5f828201840152601f01601f1916010190565b9060206104fa9281815201906104c5565b90565b34610438575f366003190112610438576040515f5f5461051c81610c47565b80845290600181169081156105b05750600114610554575b6105508361054481850382610895565b604051918291826104e9565b0390f35b5f8080527f290decd9548b62a8d60345a988386fc84ba6bc95484008f6362f93160ef3e563939250905b80821061059657509091508101602001610544610534565b91926001816020925483858801015201910190929161057e565b60ff191660208086019190915291151560051b840190910191506105449050610534565b34610438576020366003190112610438576004356105f181613912565b505f526004602052602060018060a01b0360405f205416604051908152f35b6001600160a01b0381160361043857565b346104385760403660031901126104385760043561063e81610610565b6024359061064b82613912565b33151580610719575b806106db575b6106c8576106c6926106a79181906001600160a01b0385811691167f8c5be1e5ebec7d5bd14f71427d1e84f3dd0314c0f7b2291e5b200ac8c7c3b9255f80a45f52600460205260405f2090565b80546001600160a01b0319166001600160a01b03909216919091179055565b005b63a9fbf51f60e01b5f523360045260245ffd5b5060ff610711336106fc8460018060a01b03165f52600560205260405f2090565b9060018060a01b03165f5260205260405f2090565b54161561065a565b506001600160a01b038116331415610654565b34610438575f3660031901126104385760206040516117708152f35b346104385760203660031901126104385760043561076581610610565b60018060a01b03165f526015602052602060ff60405f2054166040519015158152f35b34610438575f36600319011261043857600c6020527f13649b2456f1b42fef0f0040b3aaeabcd21a76a0f3f5defd4f583839455116e8547fd421a5181c571bba3f01190c922c3b2a896fc1d84e86c9f17ac10e67ebef8b5c547f5d6016397a73f5e079297ac5a36fef17b4d9c3831618e63ab105738020ddd7205460035f5260809291907fc0da782485e77ae272268ae0a3ff44c1552ecb60b3743924de17a815e0a3cfd75491604051938452602084015260408301526060820152f35b634e487b7160e01b5f52604160045260245ffd5b60a081019081106001600160401b0382111761087557604052565b610846565b60c081019081106001600160401b0382111761087557604052565b90601f801991011681019081106001600160401b0382111761087557604052565b604051906108c560a083610895565b565b6001600160401b03811161087557601f01601f191660200190565b81601f82011215610438576020813591016108fc826108c7565b9261090a6040519485610895565b8284528282011161043857815f92602092838601378301015290565b906040600319830112610438576004356001600160401b0381116104385782610951916004016108e2565b91602435906001600160401b038211610438576104fa916004016108e2565b34610438576109d360206109c561098636610926565b610991939193613946565b6109b160405183816109a38189610b46565b600e81520301902082610be9565b60ff19815416905560405192838092610b46565b600e81520301902090610be9565b805460ff19169055005b6060906003190112610438576004356109f581610610565b90602435610a0281610610565b9060443590565b34610438576106c6610a1a366109dd565b91612af9565b3461043857602036600319011261043857600435610a3d81610610565b60018060a01b03165f526016602052602060405f2054604051908152f35b60206040818301928281528451809452019201905f5b818110610a7e5750505090565b8251845260209384019390920191600101610a71565b3461043857602036600319011261043857600435610ab181610610565b60018060a01b03165f52600b60205260405f206040519081602082549182815201915f5260205f20905f5b818110610aff5761055085610af381870382610895565b60405191829182610a5b565b8254845260209093019260019283019201610adc565b604060031982011261043857600435906001600160401b03821161043857610b3f916004016108e2565b9060243590565b805191908290602001825e015f815290565b6020610b6a9160405192838092610b46565b600e81520301902090565b6020610b879160405192838092610b46565b601081520301902090565b6020610ba49160405192838092610b46565b600f81520301902090565b6020610bc19160405192838092610b46565b601181520301902090565b6020610bde9160405192838092610b46565b600d81520301902090565b602090610bfc9260405193848093610b46565b9081520301902090565b634e487b7160e01b5f52603260045260245ffd5b8054821015610c2f575f5260205f2001905f90565b610c06565b634e487b7160e01b5f525f60045260245ffd5b90600182811c92168015610c75575b6020831014610c6157565b634e487b7160e01b5f52602260045260245ffd5b91607f1691610c56565b9060405191825f825492610c9284610c47565b8084529360018116908115610cfb5750600114610cb7575b506108c592500383610895565b90505f9291925260205f20905f915b818310610cdf5750509060206108c5928201015f610caa565b6020919350806001915483858901015201910190918492610cc6565b9050602092506108c594915060ff191682840152151560051b8201015f610caa565b34610438576020610d3e610d3036610b15565b929060405192838092610b46565b601081520301902090815481101561043857610d5991610c1a565b610d7d57610d6961055091610c7f565b6040519182916020835260208301906104c5565b610c34565b60041115610d8c57565b634e487b7160e01b5f52602160045260245ffd5b906004821015610d8c5752565b34610438576020366003190112610438576004355f52600a602052610e1d60405f20610550610ddb82610c7f565b9160ff600182015416610e35610df360028401610c7f565b91610e05600460038601549501610c7f565b92610e2860405198899860a08a5260a08a01906104c5565b926020890190610da0565b86820360408801526104c5565b91606085015283820360808501526104c5565b34610438575f3660031901126104385760ff6017541615610e7157601854604051908152602090f35b60405162461bcd60e51b815260206004820152601a60248201527f5261696e626f7720636174206e6f74206d696e746564207965740000000000006044820152606490fd5b3461043857610ec436610926565b90610ecd613a2a565b610ed981511515612c1f565b610ee582511515612c60565b610efd81516020830120835160208501201415612ca4565b601454610f1a906001600160a01b03165b6001600160a01b031690565b604051630af9711360e21b815260208180610f3886600483016104e9565b0381855afa801561114357610f54915f91611177575b50612d1b565b604051630af9711360e21b815260208180610f7287600483016104e9565b0381855afa801561114357610f8e915f91611148575b50612d5f565b5f604051809263b5fcabc560e01b82528180610fad87600483016104e9565b03915afa801561114357610f0e610fd791610fde935f91611121575b50516001600160a01b031690565b3314612e8c565b611009611004611000610ff9610ff385610b58565b86610be9565b5460ff1690565b1590565b612ed1565b61102b61101e61101883610b58565b84610be9565b805460ff19166001179055565b61104061101e61103a84610b58565b83610be9565b6110528261104d83610b75565b613036565b61105f8161104d84610b75565b60135461107661106e83610b92565b9182546130a5565b905560135461108761106e84610b92565b90557ff8dceb9858031607c67bc3feab4dd9d70ec465a11707a49b43e3031308d1e74f601354926110b783610b92565b546110c1846130b2565b836110e76110ce856130b2565b604080518a815260208101969096529094918291820190565b0390a36111066111006110f983610b92565b54926130b2565b936130b2565b60408051958652602086019290925293a36106c66001600855565b61113d91503d805f833e6111358183610895565b810190612df1565b5f610fc9565b612d10565b61116a915060203d602011611170575b6111628183610895565b810190612cfb565b5f610f88565b503d611158565b611190915060203d602011611170576111628183610895565b5f610f4e565b34610438575f366003190112610438576014546040516001600160a01b039091168152602090f35b34610438575f366003190112610438576111d6613946565b5f80808060018060a01b036007541647908282156111f7575bf11561114357005b506108fc6111ef565b34610438576040366003190112610438576004356024356001600160401b038111610438576112339036906004016108e2565b61123b613946565b5f828152600260205260409020546001600160a01b03161561127457600461126e6106c6935f52600a60205260405f2090565b01612f6b565b60405162461bcd60e51b8152602060048201526014602482015273151bdad95b88191bd95cc81b9bdd08195e1a5cdd60621b6044820152606490fd5b34610438576106c66112c1366109dd565b90604051926112d1602085610895565b5f84526112df838383612af9565b33613f09565b34610438575f36600319011261043857602060405160648152f35b34610438575f366003190112610438576106c6613946565b34610438575f366003190112610438576020604051610bb88152f35b3461043857602061137461134736610b15565b9290611351613946565b61135d815115156130c8565b611368841515613106565b60405192838092610b46565b600f815203019020805491820180921161138b5755005b613063565b34610438575f366003190112610438576020601854604051908152f35b906104fa916020815260806113f96113d1845160a0602086015260c08501906104c5565b6113e360208601516040860190610da0565b6040850151848203601f190160608601526104c5565b9260608101518284015201519060a0601f19828503019101526104c5565b34610438576020366003190112610438576004356060608060405161143b8161085a565b8281525f60208201528260408201525f838201520152805f52600260205261147060018060a01b0360405f2054161515613152565b5f52600a60205261055060405f206114d06004604051926114908461085a565b61149981610c7f565b84526114af60ff60018301541660208601613197565b6114bb60028201610c7f565b60408501526003810154606085015201610c7f565b6080820152604051918291826113ad565b34610438576040366003190112610438576004356001600160401b038111610438576115119036906004016108e2565b61158a60243561152081610610565b601454602090611538906001600160a01b0316610f0e565b9361154d6001600160a01b03861633146131a3565b6001600160a01b038316946115638615156131ef565b61156f825115156130c8565b6040518080968194630af9711360e21b8352600483016104e9565b03915afa908115611143576115ad61101e926115c6945f916115f5575b50613234565b6001600160a01b03165f90815260156020526040902090565b604051600181527fc176fcf7d48a6aca0d96d3b3201f7add47c4af04ce9a51f5f4eb15d528c46e2190602090a2005b61160e915060203d602011611170576111628183610895565b5f6115a7565b34610438576020366003190112610438576020611632600435613912565b6040516001600160a01b039091168152f35b61164d36610926565b611655613a2a565b611663601254341015613270565b61166f815115156132b4565b61167b825115156130c8565b61168f61168783610b92565b541515613300565b6014546116a4906001600160a01b0316610f0e565b91604051630af9711360e21b8152602081806116c385600483016104e9565b0381875afa8015611143576116df915f916119f2575b5061334c565b5f604051809463b5fcabc560e01b825281806116fe86600483016104e9565b03915afa908115611143577f673eae55e1a7371415ab018f978dd844604ca6b3bb10909409fa82d118a7ebad935f926119c7575b5081515f5160206143105f395f51905f52919061175b90610fd7906001600160a01b0316610f0e565b82516117929060649061178b906001600160a01b03165b6001600160a01b03165f908152600b6020526040902090565b541061338d565b61179b81610b92565b6117a581546133c9565b90556117b081610baf565b6117ba81546133d5565b90556117cf6117ca6009546133d5565b600955565b61193061192a600954946117e284613a4a565b9387876117ee87613be7565b9a8b9361187a6040516118398161182b6118256020830160139072323930bbb72fbbb4ba342fba34b1b5b2ba399d60691b81520190565b86610b46565b03601f198101835282610895565b6118416108b6565b908682526118528c60208401613197565b8760408301524260608301526080820152611875855f52600a60205260405f2090565b6133e3565b61188661101e86610bcc565b61188f896122eb565b61189981546133d5565b90556118a489610d82565b60038914611958575b85516118cc9084906118c7906001600160a01b0316611772565b61343a565b85516118e29084906001600160a01b0316613c7b565b85516001600160a01b031661191a6119036118fc84610b92565b54966130b2565b9560405193849360018060a01b0316988d85613475565b0390a4516001600160a01b031690565b946130b2565b9361194b60405192839260018060a01b0316974291846134af565b0390a46106c66001600855565b61196a600160ff196017541617601755565b61197383601855565b85516001600160a01b0316611987856130b2565b6040514281526001600160a01b03929092169185907fce53851d0b68acd266655e2f0c7a26243add74023bec372a5a47e2745c25bf0390602090a46118ad565b5f5160206143105f395f51905f529192506119eb903d805f833e6111358183610895565b9190611732565b611a0b915060203d602011611170576111628183610895565b5f6116d9565b34610438575f3660031901126104385760206040516103848152f35b602060031982011261043857600435906001600160401b038211610438576104fa916004016108e2565b3461043857611a6a602061136836611a2d565b60118152030190205460328102908082046032149015171561138b57602090604051908152f35b3461043857602036600319011261043857600435611aae81610610565b6001600160a01b03168015611ad3575f526003602052602060405f2054604051908152f35b6322718ad960e21b5f525f60045260245ffd5b34610438575f36600319011261043857611afe613946565b600780546001600160a01b031981169091555f906001600160a01b03167f8be0079c531659141344cd1fd0a4f28419497f9722a3daafe3b4186f6b6457e08280a3005b34610438575f36600319011261043857602060ff601754166040519015158152f35b8015150361043857565b604090600319011261043857600435611b8581610610565b906024356104fa81611b63565b346104385760207fc176fcf7d48a6aca0d96d3b3201f7add47c4af04ce9a51f5f4eb15d528c46e21611bc336611b6d565b9290611bcd613946565b6001600160a01b03165f8181526015835260409020805460ff191660ff86151516179055926040519015158152a2005b6001600160401b0381116108755760051b60200190565b9080601f83011215610438578135611c2b81611bfd565b92611c396040519485610895565b81845260208085019260051b82010192831161043857602001905b828210611c615750505090565b602080918335611c7081611b63565b815201910190611c54565b34610438576040366003190112610438576004356001600160401b038111610438573660238201121561043857806004013590611cb782611bfd565b91611cc56040519384610895565b8083526024602084019160051b8301019136831161043857602401905b828210611d1257602435846001600160401b03821161043857611d0c6106c6923690600401611c14565b906134e9565b602080918335611d2181610610565b815201910190611ce2565b34610438575f366003190112610438576007546040516001600160a01b039091168152602090f35b3461043857602036600319011261043857600435611d7181610610565b611d79613946565b6001600160a01b03168015611dcd57601480546001600160a01b038381166001600160a01b0319831617909255167fc88229f1d8e54d31f640a733927bc56d9fcbb8cf9c2b6b87f81fc713c49bc6475f80a3005b60405162461bcd60e51b815260206004820152600f60248201526e496e76616c6964206164647265737360881b6044820152606490fd5b9060c0600319830112610438576004356001600160401b0381116104385782611e2f916004016108e2565b916024356001600160401b0381116104385781611e4e916004016108e2565b91604435611e5b81610610565b91606435916084359160a435906001600160401b038211610438576104fa916004016108e2565b3461043857611f1c61182b611f13611f21611e9c36611e04565b9398949791611ead97919397613a2a565b335f52601560205260ff60405f20541680156120a4575b611ecd9061361b565b611ed981421115613667565b6001600160a01b0388165f908152601660205260409020611efe9085905b541461369d565b60405192839160208301958c8c8c308a6136d9565b51902084613db4565b61373f565b6001600160a01b0381165f908152601660205260409020611f4281546133d5565b9055815115158061209a575b611f57906130c8565b611f6f82516020840120845160208601201415612ca4565b601454611f84906001600160a01b0316610f0e565b90604051630af9711360e21b815260208180611fa387600483016104e9565b0381865afa908115611143575f9161207b575b508061201f575b611fc69061334c565b5f604051809363b5fcabc560e01b82528180611fe588600483016104e9565b03915afa801561114357610f0e61200e91610fde945f916111215750516001600160a01b031690565b6001600160a01b0390911614612e8c565b50604051630af9711360e21b81526020818061203e88600483016104e9565b0381865afa801561114357611fc6915f9161205c575b509050611fbd565b612075915060203d602011611170576111628183610895565b5f612054565b612094915060203d602011611170576111628183610895565b5f611fb6565b5082511515611f4e565b506007546001600160a01b03163314611ec4565b34610438575f366003190112610438576040515f6001546120d881610c47565b80845290600181169081156105b057506001146120ff576105508361054481850382610895565b60015f9081527fb10e2d527612073b26eecdfd717e6a320cf44b4afac2b0732d9fcbe2b7fa0cf6939250905b80821061214357509091508101602001610544610534565b91926001816020925483858801015201910190929161212b565b346104385761216b36611a2d565b6121956020604051818161217f8187610b46565b600f815203019020549260405192838092610b46565b6011815203019020549081810180821161138b5760609260405192835260208301526040820152f35b346104385760206121d28161136836611a2d565b601181520301902054604051908152f35b34610438576121f136611b6d565b6001600160a01b03821691821561226c578161222b61223c92335f52600560205260405f209060018060a01b03165f5260205260405f2090565b9060ff801983541691151516179055565b60405190151581527f17307eab39ab6107e8899845ad3d59bd9653f200f220920489ca2b5937696c3160203392a3005b82630b61174360e31b5f5260045260245ffd5b346104385760203660031901126104385760043561229b613946565b80156122a657601355005b60405162461bcd60e51b815260206004820152601d60248201527f526577617264206d7573742062652067726561746572207468616e20300000006044820152606490fd5b6004811015610d8c575f52600c60205260405f2090565b346104385760203660031901126104385760043560048110156104385761232a6020916122eb565b54604051908152f35b346104385760403660031901126104385760043561235081610610565b6001600160a01b03165f908152600b60205260409020805460243591908210156104385760209161238091610c1a565b90549060031b1c604051908152f35b61182b611f1c611f136124266123a436611e04565b93979498916123b597919397613a2a565b335f52601560205260ff60405f2054168015612567575b6123d59061361b565b6123e3601254341015613270565b6123ef81421115613667565b6001600160a01b0388165f908152601660205260409020612411908590611ef7565b60405192839160208301958b8d8c308a61377b565b6001600160a01b0381165f90815260166020526040902061244781546133d5565b9055612455825115156132b4565b612461835115156130c8565b61246d61168784610b92565b601454612482906001600160a01b0316610f0e565b92604051630af9711360e21b8152602081806124a185600483016104e9565b0381885afa8015611143576124bc915f916119f2575061334c565b5f604051809563b5fcabc560e01b825281806124db86600483016104e9565b03915afa908115611143577f673eae55e1a7371415ab018f978dd844604ca6b3bb10909409fa82d118a7ebad945f9261253a575b50815191925f5160206143105f395f51905f529261175b919061200e906001600160a01b0316610f0e565b5f5160206143105f395f51905f52925061256061175b913d805f833e6111358183610895565b925061250f565b506007546001600160a01b031633146123cc565b346104385760803660031901126104385760043561259881610610565b602435906125a582610610565b604435606435926001600160401b038411610438576125cb6106c69436906004016108e2565b926112df838383612af9565b9080601f830112156104385781356125ee81611bfd565b926125fc6040519485610895565b81845260208085019260051b82010192831161043857602001905b8282106126245750505090565b8135815260209182019101612617565b34610438576040366003190112610438576004356001600160401b038111610438573660238201121561043857806004013561266f81611bfd565b9161267d6040519384610895565b8183526024602084019260051b820101903682116104385760248101925b8284106126cb57602435856001600160401b038211610438576126c56106c69236906004016125d7565b906137d3565b83356001600160401b038111610438576020916126ef8392602436918701016108e2565b81520193019261269b565b3461043857602060ff6127108261136836611a2d565b600d81520301902054166040519015158152f35b3461043857602036600319011261043857600435612740613946565b601255005b346104385760206127598161136836611a2d565b600f81520301902054604051908152f35b3461043857602036600319011261043857610550610d69600435613fce565b34610438575f366003190112610438576020601254604051908152f35b3461043857602060ff6127cb6127c56127be36610926565b9190610b58565b90610be9565b54166040519015158152f35b34610438576040366003190112610438576024356004356127f782610610565b5f81815260026020526040902054612819906001600160a01b03161515613152565b61282281613912565b336001600160a01b03909116036128d6576128476001600160a01b0383161515613856565b612852818333613ffe565b61285c8133614091565b6001600160a01b0382165f908152600b6020526040902061287e90829061343a565b612898612893825f52600a60205260405f2090565b613896565b6040516001600160a01b0393909316835233929091907f3cb5a656d154c15807b50e1a587c8f4c709d373a2a18d4e676d13e29af0bd3dd90602090a4005b60405162461bcd60e51b815260206004820152600d60248201526c2737ba103a34329037bbb732b960991b6044820152606490fd5b3461043857604036600319011261043857602060ff6127cb60043561292f81610610565b6024359061293c82610610565b60018060a01b03165f526005845260405f209060018060a01b03165f5260205260405f2090565b346104385760203660031901126104385760043561298081610610565b612988613946565b6001600160a01b031680156129da57600780546001600160a01b0319811683179091556001600160a01b03167f8be0079c531659141344cd1fd0a4f28419497f9722a3daafe3b4186f6b6457e05f80a3005b631e4fbdf760e01b5f525f60045260245ffd5b602081016020825282518091526040820191602060408360051b8301019401925f915b838310612a1f57505050505090565b9091929394602080612a3d600193603f1986820301875289516104c5565b97019301930191939290612a10565b3461043857612a5f602061136836611a2d565b60108152030190208054612a7281611bfd565b91612a806040519384610895565b81835260208301905f5260205f205f915b838310612aa6576040518061055087826129ed565b600160208192612ab585610c7f565b815201920192019190612a91565b34610438575f366003190112610438576020601354604051908152f35b3461043857602060ff6127cb826109c5610d3036610926565b6001600160a01b03821692918315612c0c575f8381526002602052604090205483906001600160a01b03169433612bfc575b6001600160a01b03861692612b709084612bd0575b6001600160a01b0381165f908152600360205260409020600181540190556106a7845f52600260205260405f2090565b827fddf252ad1be2c89b69c2b068fc378daa952ba7f163c4a11628f55a4df523b3ef5f80a46001600160a01b03821603612ba957505050565b6364283d7b60e01b5f526001600160a01b039081166004526024919091521660445260645ffd5b612bd98461410e565b6001600160a01b0388165f90815260036020526040902080545f19019055612b40565b612c07823388614130565b612b2b565b633250574960e11b5f525f60045260245ffd5b15612c2657565b60405162461bcd60e51b8152602060048201526012602482015271125b9d985b1a59081b5e48139190c815525160721b6044820152606490fd5b15612c6757565b60405162461bcd60e51b8152602060048201526015602482015274125b9d985b1a59081bdd1a195c88139190c8155251605a1b6044820152606490fd5b15612cab57565b60405162461bcd60e51b815260206004820152601d60248201527f43616e6e6f7420696e746572616374207769746820796f757273656c660000006044820152606490fd5b51906108c582611b63565b9081602091031261043857516104fa81611b63565b6040513d5f823e3d90fd5b15612d2257565b60405162461bcd60e51b8152602060048201526015602482015274135e48139190c81b9bdd081c9959da5cdd195c9959605a1b6044820152606490fd5b15612d6657565b60405162461bcd60e51b815260206004820152601860248201527f4f74686572204e4643206e6f74207265676973746572656400000000000000006044820152606490fd5b81601f8201121561043857805190612dc2826108c7565b92612dd06040519485610895565b8284526020838301011161043857815f9260208093018386015e8301015290565b602081830312610438578051906001600160401b038211610438570160c0818303126104385760405191612e248361087a565b8151612e2f81610610565b83526020820151602084015260408201516040840152612e5160608301612cf0565b6060840152612e6260808301612cf0565b608084015260a08201516001600160401b03811161043857612e849201612dab565b60a082015290565b15612e9357565b60405162461bcd60e51b8152602060048201526016602482015275596f7520646f6e2774206f776e2074686973204e464360501b6044820152606490fd5b15612ed857565b606460405162461bcd60e51b815260206004820152602060248201527f416c726561647920696e746572616374656420776974682074686973204e46436044820152fd5b601f8211612f2957505050565b5f5260205f20906020601f840160051c83019310612f61575b601f0160051c01905b818110612f56575050565b5f8155600101612f4b565b9091508190612f42565b91909182516001600160401b03811161087557612f9281612f8c8454610c47565b84612f1c565b6020601f8211600114612fd1578190612fc29394955f92612fc6575b50508160011b915f199060031b1c19161790565b9055565b015190505f80612fae565b601f19821690612fe4845f5260205f2090565b915f5b81811061301e57509583600195969710613006575b505050811b019055565b01515f1960f88460031b161c191690555f8080612ffc565b9192602060018192868b015181550194019201612fe7565b8054600160401b8110156108755761305391600182018155610c1a565b919091610d7d576108c591612f6b565b634e487b7160e01b5f52601160045260245ffd5b606401908160641161138b57565b6103840190816103841161138b57565b610bb8019081610bb81161138b57565b9190820180921161138b57565b6130c29060405191828092610b46565b03902090565b156130cf57565b60405162461bcd60e51b815260206004820152600f60248201526e125b9d985b1a5908139190c8155251608a1b6044820152606490fd5b1561310d57565b60405162461bcd60e51b815260206004820152601d60248201527f416d6f756e74206d7573742062652067726561746572207468616e20300000006044820152606490fd5b1561315957565b60405162461bcd60e51b815260206004820152601660248201527510d85d0813919508191bd95cc81b9bdd08195e1a5cdd60521b6044820152606490fd5b6004821015610d8c5752565b156131aa57565b60405162461bcd60e51b815260206004820152601a60248201527f4f6e6c79204e46432072656769737472792063616e2063616c6c0000000000006044820152606490fd5b156131f657565b60405162461bcd60e51b8152602060048201526016602482015275496e76616c69642077616c6c6574206164647265737360501b6044820152606490fd5b1561323b57565b60405162461bcd60e51b815260206004820152600d60248201526c139190c81b9bdd08189bdd5b99609a1b6044820152606490fd5b1561327757565b60405162461bcd60e51b8152602060048201526015602482015274496e73756666696369656e7420647261772066656560581b6044820152606490fd5b156132bb57565b60405162461bcd60e51b815260206004820152601860248201527f436174206e616d652063616e6e6f7420626520656d70747900000000000000006044820152606490fd5b1561330757565b60405162461bcd60e51b815260206004820152601960248201527f4e6f2064726177207469636b65747320617661696c61626c65000000000000006044820152606490fd5b1561335357565b60405162461bcd60e51b8152602060048201526012602482015271139190c81b9bdd081c9959da5cdd195c995960721b6044820152606490fd5b1561339457565b60405162461bcd60e51b815260206004820152600d60248201526c546f6f206d616e79206361747360981b6044820152606490fd5b801561138b575f190190565b5f19811461138b5760010190565b6133ee825182612f6b565b6001810160208301516004811015610d8c576108c59360049260809260ff80198354169116179055613427604082015160028601612f6b565b6060810151600385015501519101612f6b565b90815491600160401b831015610875578261345d9160016108c595018155610c1a565b90919082549060031b91821b915f19901b1916179055565b94939261349c60609361348b886134aa95610da0565b6080602089015260808801906104c5565b9086820360408801526104c5565b930152565b9392916134aa906134c286604094610da0565b6060602087015260608601906104c5565b9060328202918083046032149015171561138b57565b91906134f3613946565b61350083518251146135c3565b5f5b83518110156135bd578061354c61351b60019385613607565b511515838060a01b0361352e8489613607565b51165f52601560205260405f209060ff801983541691151516179055565b6135568186613607565b828060a01b039051167fc176fcf7d48a6aca0d96d3b3201f7add47c4af04ce9a51f5f4eb15d528c46e216135b46135966135908588613607565b51151590565b92604051918291878060a01b03169482919091602081019215159052565b0390a201613502565b50509050565b156135ca57565b60405162461bcd60e51b8152602060048201526015602482015274082e4e4c2f240d8cadccee8d040dad2e6dac2e8c6d605b1b6044820152606490fd5b8051821015610c2f5760209160051b010190565b1561362257565b60405162461bcd60e51b815260206004820152601760248201527f4e6f7420617574686f72697a6564206f70657261746f720000000000000000006044820152606490fd5b1561366e57565b60405162461bcd60e51b8152602060048201526007602482015266115e1c1a5c995960ca1b6044820152606490fd5b156136a457565b60405162461bcd60e51b815260206004820152600d60248201526c496e76616c6964206e6f6e636560981b6044820152606490fd5b92603961373394604098969461372d946001600160601b03199060601b1682527039b7b1b4b0b624b73a32b930b1ba34b7b760791b60148301526001600160601b03199060601b1660258201520190610b46565b90610b46565b91825260208201520190565b1561374657565b60405162461bcd60e51b815260206004820152600d60248201526c426164207369676e617475726560981b6044820152606490fd5b92603d61373394604098969461372d946001600160601b03199060601b16825274647261774361744e4654576974685469636b65747360581b60148301526001600160601b03199060601b1660298201520190610b46565b91906137dd613946565b6137ea83518251146135c3565b5f5b83518110156135bd5761380b6138028286613607565b515115156130c8565b6138206138188284613607565b511515613106565b61382a8183613607565b519061383f6138398287613607565b51610b92565b91825490810180911161138b5760019255016137ec565b1561385d57565b60405162461bcd60e51b8152602060048201526011602482015270125b9d985b1a59081c9958da5c1a595b9d607a1b6044820152606490fd5b60405180915f908054906138a982610c47565b91600181169081156138fb57506001146138c6575b505003902090565b9091505f5260205f205f905b8282106138e457505081015f806138be565b8054828601528493506020909101906001016138d2565b60ff19168552505080151502820190505f806138be565b5f818152600260205260409020546001600160a01b0316908115613934575090565b637e27328960e01b5f5260045260245ffd5b6007546001600160a01b0316330361395a57565b63118cdaa760e01b5f523360045260245ffd5b5f828152600260205260409020546001600160a01b03169190826139fe575b6001600160a01b038116906139b390826139db575b6106a7845f52600260205260405f2090565b827fddf252ad1be2c89b69c2b068fc378daa952ba7f163c4a11628f55a4df523b3ef5f80a490565b6001600160a01b0381165f908152600360205260409020600181540190556139a1565b613a078261410e565b6001600160a01b0383165f90815260036020526040902080545f1901905561398c565b600260085414613a3b576002600855565b633ee5aeb560e01b5f5260045ffd5b613a56613a5c91610baf565b546134d3565b613a64614226565b90613a77613a728260021c90565b613077565b613a92613a8c613a878460011c90565b613085565b92613095565b90808411613ab85750505050613aaa60175460ff1690565b613ab357600390565b600290565b613ac283826130a5565b8411613ad15750505050600290565b613ae392613ade916130a5565b6130a5565b10613aed57600190565b5f90565b60405190613b00604083610895565b6005825264626c61636b60d81b6020830152565b60405190613b23604083610895565b60068252656f72616e676560d01b6020830152565b60405190613b47604083610895565b60038252621c995960ea1b6020830152565b60405190613b68604083610895565b600582526433b932b2b760d91b6020830152565b60405190613b8b604083610895565b6004825263626c756560e01b6020830152565b60405190613bad604083610895565b6006825265707572706c6560d01b6020830152565b60405190613bd1604083610895565b60078252667261696e626f7760c81b6020830152565b613bf081610d82565b60038103613c0157506104fa613bc2565b613c0a81610d82565b60028103613c3257506001613c1d6142c9565b03613c2a576104fa613b9e565b6104fa613b7c565b80613c3e600192610d82565b03613c7357613c4b614283565b60018103613c5c57506104fa613b59565b600203613c6b576104fa613b38565b6104fa613b14565b6104fa613af1565b604051602092613c8b8483610895565b5f82526001600160a01b038316908115612c0c576001600160a01b03613cb1828661396d565b16613da157833b613cc4575b5050505050565b918495939491613ced935f604051809681958294630a85bd0160e11b8452843360048601613ea9565b03925af15f9181613d72575b50613d32575050613d08613eda565b8051929083613d2d57633250574960e11b5f526001600160a01b03831660045260245ffd5b019050fd5b9092506001600160e01b03191663757a42ff60e11b01613d5757505f80808080613cbd565b633250574960e11b5f526001600160a01b031660045260245ffd5b613d93919250853d8711613d9a575b613d8b8183610895565b810190613e94565b905f613cf9565b503d613d81565b6339e3563760e11b5f525f60045260245ffd5b919060405160208101917f19457468657265756d205369676e6564204d6573736167653a0a3332000000008352603c820152603c8152613df5605c82610895565b5190206041825103613e4f5760208281015160408085015160609586015182519586525f90811a868601529185019290925293830152828052919060809060015afa15611143575f516001600160a01b0390811691161490565b60405162461bcd60e51b815260206004820152601860248201527f496e76616c6964207369676e6174757265206c656e67746800000000000000006044820152606490fd5b9081602091031261043857516104fa81610426565b6001600160a01b0391821681529116602082015260408101919091526080606082018190526104fa929101906104c5565b3d15613f04573d90613eeb826108c7565b91613ef96040519384610895565b82523d5f602084013e565b606090565b939193843b613f19575050505050565b613f3a6020936040519586948594630a85bd0160e11b865260048601613ea9565b03815f6001600160a01b0387165af15f9181613fad575b50613f8b5750613f5f613eda565b8051919082613f8457633250574960e11b5f526001600160a01b03821660045260245ffd5b6020915001fd5b6001600160e01b03191663757a42ff60e11b01613d5757505f80808080613cbd565b613fc791925060203d602011613d9a57613d8b8183610895565b905f613f51565b613fd781613912565b505f526006602052613feb60405f20610c7f565b5f604051613ffa602082610895565b5290565b919291906001600160a01b03811615612c0c578361401b9161396d565b906001600160a01b0382168061403e5784637e27328960e01b5f5260045260245ffd5b929391926001600160a01b03821603612ba957505050565b8054801561407d575f19019061406c8282610c1a565b8154905f199060031b1b1916905555565b634e487b7160e01b5f52603160045260245ffd5b6001600160a01b03165f908152600b60205260408120905b81548082101561410857836140be8385610c1a565b90549060031b1c146140d357506001016140a9565b9092505f19810190811161138b576108c59261345d6140f56141039385610c1a565b90549060031b1c9184610c1a565b614056565b50505050565b614120905f52600460205260405f2090565b80546001600160a01b0319169055565b90919061414e6001600160a01b038416801515908161419657501590565b61415757505050565b6001600160a01b031661417657637e27328960e01b5f5260045260245ffd5b63177e802f60e01b5f526001600160a01b0390911660045260245260445ffd5b6001600160a01b038416808214925082156141d6575b5081156141b857501590565b5f858152600460205260409020546001600160a01b03161415919050565b9091505f52600560205260ff6141ff8660405f209060018060a01b03165f5260205260405f2090565b5416905f6141ac565b8115614212570690565b634e487b7160e01b5f52601260045260245ffd5b6127106142759060095460405161426d8161182b60208201943344428892909160749492845260208401526001600160601b03199060601b16604083015260548201520190565b519020614208565b6001810180911161138b5790565b60036142759060095460405161426d8161182b60208201943344428892909160749492845260208401526001600160601b03199060601b16604083015260548201520190565b60026142759060095460405161426d8161182b60208201943344428892909160749492845260208401526001600160601b03199060601b1660408301526054820152019056fef145aeb4d3ef6c948b8d380f8388039a29cbdccdc94f7a7c1ad2f4fe318eea63a2646970667358221220433a907e59b089c6753e26ff3450f67414b0e80bc2b3b3ee15736fbc8fe85fc564736f6c634300081e0033","linkReferences":{}},"methodIdentifiers":{"MAX_CATS_PER_USER()":"48c5f80e","R_PROBABILITY()":"1715b8c6","SR_PROBABILITY()":"554d1952","SSR_PROBABILITY()":"6c569d58","UR_PROBABILITY()":"86d17084","addDrawTickets(string,uint256)":"58e1ac23","approve(address,uint256)":"095ea7b3","authorizeNewNFCUser(string,address)":"5ec9b71b","authorizedOperators(address)":"181d989b","balanceOf(address)":"70a08231","batchAddDrawTickets(string[],uint256[])":"bb28fdbb","batchSetAuthorizedOperators(address[],bool[])":"879709a1","catInfos(uint256)":"33ce3dbe","drawCatNFTWithTickets(string,string)":"6a6b9ec2","drawCatNFTWithTicketsWithSig(string,string,address,uint256,uint256,bytes)":"aef27bf8","drawCounts(string)":"f9be1955","drawFee()":"d75e30cf","emergencyPause()":"51858e27","emergencyResetInteraction(string,string)":"1fa0783e","emergencyResume()":"93c87f03","getApproved(uint256)":"081812fc","getAvailableDrawCount(string)":"c76ea15f","getCatInfo(uint256)":"5de32ef5","getDrawStats(string)":"9ab5958c","getInteractedNFCs(string)":"faca8305","getNonce(address)":"2d0335ab","getRainbowCatTokenId()":"34ded72d","getRarityCounts()":"1f71bab4","getSocialBonus(string)":"6c5ef2dc","getTotalDrawsUsed(string)":"ee727470","getUserCats(address)":"310c71ae","hasInteracted(string,string)":"e0ac3d3c","interactedNFCs(string,uint256)":"320b27cb","isApprovedForAll(address,address)":"e985e9c5","isColorUsed(string)":"d4924afc","isRainbowCatMinted()":"ce5d7930","name()":"06fdde03","nfcRegistry()":"3a06831c","nonces(address)":"7ecebe00","owner()":"8da5cb5b","ownerOf(uint256)":"6352211e","rainbowCatMinted()":"74f796ce","rainbowCatTokenId()":"594fd73c","rarityCounts(uint8)":"a3fbbb74","renounceOwnership()":"715018a6","safeTransferFrom(address,address,uint256)":"42842e0e","safeTransferFrom(address,address,uint256,bytes)":"b88d4fde","setApprovalForAll(address,bool)":"a22cb465","setAuthorizedOperator(address,bool)":"788f737d","setDrawFee(uint256)":"c75da8d5","setNFCRegistry(address)":"8df2de25","setSocialInteractionReward(uint256)":"a252ea45","socialInteraction(string,string)":"38ee1b30","socialInteractionReward()":"fb00ef54","socialInteractionWithSig(string,string,address,uint256,uint256,bytes)":"945b2795","socialInteractions(string,string)":"fe28c675","supportsInterface(bytes4)":"01ffc9a7","symbol()":"95d89b41","tokenURI(uint256)":"c87b56dd","totalDrawsUsed(string)":"9cb4a0db","transferCatNFT(uint256,address)":"e7697265","transferFrom(address,address,uint256)":"23b872dd","transferOwnership(address)":"f2fde38b","updateCatMetadata(uint256,string)":"3ed24510","usedColors(string)":"c08ee6ca","userCats(address,uint256)":"a4fc1a13","withdraw()":"3ccfd60b"},"id":43}