{"abi":[{"type":"constructor","inputs":[{"name":"_nfcRegistry","type":"address","internalType":"address"}],"stateMutability":"nonpayable"},{"type":"function","name":"MAX_DOMAIN_LENGTH","inputs":[],"outputs":[{"name":"","type":"uint256","internalType":"uint256"}],"stateMutability":"view"},{"type":"function","name":"MIN_DOMAIN_LENGTH","inputs":[],"outputs":[{"name":"","type":"uint256","internalType":"uint256"}],"stateMutability":"view"},{"type":"function","name":"approve","inputs":[{"name":"to","type":"address","internalType":"address"},{"name":"tokenId","type":"uint256","internalType":"uint256"}],"outputs":[],"stateMutability":"nonpayable"},{"type":"function","name":"authorizeNewNFCUser","inputs":[{"name":"nfcUID","type":"string","internalType":"string"},{"name":"userWallet","type":"address","internalType":"address"}],"outputs":[],"stateMutability":"nonpayable"},{"type":"function","name":"authorizedOperators","inputs":[{"name":"","type":"address","internalType":"address"}],"outputs":[{"name":"","type":"bool","internalType":"bool"}],"stateMutability":"view"},{"type":"function","name":"balanceOf","inputs":[{"name":"owner","type":"address","internalType":"address"}],"outputs":[{"name":"","type":"uint256","internalType":"uint256"}],"stateMutability":"view"},{"type":"function","name":"batchSetAuthorizedOperators","inputs":[{"name":"operators","type":"address[]","internalType":"address[]"},{"name":"authorizations","type":"bool[]","internalType":"bool[]"}],"outputs":[],"stateMutability":"nonpayable"},{"type":"function","name":"domainInfos","inputs":[{"name":"","type":"uint256","internalType":"uint256"}],"outputs":[{"name":"domainName","type":"string","internalType":"string"},{"name":"owner","type":"address","internalType":"address"},{"name":"nfcUID","type":"string","internalType":"string"},{"name":"registeredAt","type":"uint256","internalType":"uint256"},{"name":"isActive","type":"bool","internalType":"bool"},{"name":"metadata","type":"string","internalType":"string"}],"stateMutability":"view"},{"type":"function","name":"domainToTokenId","inputs":[{"name":"","type":"string","internalType":"string"}],"outputs":[{"name":"","type":"uint256","internalType":"uint256"}],"stateMutability":"view"},{"type":"function","name":"emergencyFreezeDomain","inputs":[{"name":"tokenId","type":"uint256","internalType":"uint256"}],"outputs":[],"stateMutability":"nonpayable"},{"type":"function","name":"getApproved","inputs":[{"name":"tokenId","type":"uint256","internalType":"uint256"}],"outputs":[{"name":"","type":"address","internalType":"address"}],"stateMutability":"view"},{"type":"function","name":"getDomainInfo","inputs":[{"name":"tokenId","type":"uint256","internalType":"uint256"}],"outputs":[{"name":"","type":"tuple","internalType":"struct ETHDomainNFT.DomainInfo","components":[{"name":"domainName","type":"string","internalType":"string"},{"name":"owner","type":"address","internalType":"address"},{"name":"nfcUID","type":"string","internalType":"string"},{"name":"registeredAt","type":"uint256","internalType":"uint256"},{"name":"isActive","type":"bool","internalType":"bool"},{"name":"metadata","type":"string","internalType":"string"}]}],"stateMutability":"view"},{"type":"function","name":"getTokenIdByDomain","inputs":[{"name":"domain","type":"string","internalType":"string"}],"outputs":[{"name":"","type":"uint256","internalType":"uint256"}],"stateMutability":"view"},{"type":"function","name":"getTokenIdByNFC","inputs":[{"name":"nfcUID","type":"string","internalType":"string"}],"outputs":[{"name":"","type":"uint256","internalType":"uint256"}],"stateMutability":"view"},{"type":"function","name":"getUserTokenIds","inputs":[{"name":"user","type":"address","internalType":"address"}],"outputs":[{"name":"","type":"uint256[]","internalType":"uint256[]"}],"stateMutability":"view"},{"type":"function","name":"isApprovedForAll","inputs":[{"name":"owner","type":"address","internalType":"address"},{"name":"operator","type":"address","internalType":"address"}],"outputs":[{"name":"","type":"bool","internalType":"bool"}],"stateMutability":"view"},{"type":"function","name":"isDomainAvailable","inputs":[{"name":"domainSuffix","type":"string","internalType":"string"}],"outputs":[{"name":"","type":"bool","internalType":"bool"}],"stateMutability":"view"},{"type":"function","name":"mintDomainNFT","inputs":[{"name":"domainSuffix","type":"string","internalType":"string"},{"name":"nfcUID","type":"string","internalType":"string"},{"name":"metadataURI","type":"string","internalType":"string"}],"outputs":[],"stateMutability":"payable"},{"type":"function","name":"name","inputs":[],"outputs":[{"name":"","type":"string","internalType":"string"}],"stateMutability":"view"},{"type":"function","name":"nfcRegistry","inputs":[],"outputs":[{"name":"","type":"address","internalType":"contract INFCWalletRegistry"}],"stateMutability":"view"},{"type":"function","name":"nfcToTokenId","inputs":[{"name":"","type":"string","internalType":"string"}],"outputs":[{"name":"","type":"uint256","internalType":"uint256"}],"stateMutability":"view"},{"type":"function","name":"owner","inputs":[],"outputs":[{"name":"","type":"address","internalType":"address"}],"stateMutability":"view"},{"type":"function","name":"ownerOf","inputs":[{"name":"tokenId","type":"uint256","internalType":"uint256"}],"outputs":[{"name":"","type":"address","internalType":"address"}],"stateMutability":"view"},{"type":"function","name":"primaryDomainTokenId","inputs":[{"name":"","type":"address","internalType":"address"}],"outputs":[{"name":"","type":"uint256","internalType":"uint256"}],"stateMutability":"view"},{"type":"function","name":"registrationFee","inputs":[],"outputs":[{"name":"","type":"uint256","internalType":"uint256"}],"stateMutability":"view"},{"type":"function","name":"renounceOwnership","inputs":[],"outputs":[],"stateMutability":"nonpayable"},{"type":"function","name":"resolveDomain","inputs":[{"name":"domain","type":"string","internalType":"string"}],"outputs":[{"name":"","type":"address","internalType":"address"}],"stateMutability":"view"},{"type":"function","name":"reverseResolve","inputs":[{"name":"addr","type":"address","internalType":"address"}],"outputs":[{"name":"","type":"string","internalType":"string"}],"stateMutability":"view"},{"type":"function","name":"safeTransferFrom","inputs":[{"name":"from","type":"address","internalType":"address"},{"name":"to","type":"address","internalType":"address"},{"name":"tokenId","type":"uint256","internalType":"uint256"}],"outputs":[],"stateMutability":"nonpayable"},{"type":"function","name":"safeTransferFrom","inputs":[{"name":"from","type":"address","internalType":"address"},{"name":"to","type":"address","internalType":"address"},{"name":"tokenId","type":"uint256","internalType":"uint256"},{"name":"data","type":"bytes","internalType":"bytes"}],"outputs":[],"stateMutability":"nonpayable"},{"type":"function","name":"setApprovalForAll","inputs":[{"name":"operator","type":"address","internalType":"address"},{"name":"approved","type":"bool","internalType":"bool"}],"outputs":[],"stateMutability":"nonpayable"},{"type":"function","name":"setAuthorizedOperator","inputs":[{"name":"operator","type":"address","internalType":"address"},{"name":"authorized","type":"bool","internalType":"bool"}],"outputs":[],"stateMutability":"nonpayable"},{"type":"function","name":"setNFCRegistry","inputs":[{"name":"_nfcRegistry","type":"address","internalType":"address"}],"outputs":[],"stateMutability":"nonpayable"},{"type":"function","name":"setPrimaryDomain","inputs":[{"name":"tokenId","type":"uint256","internalType":"uint256"}],"outputs":[],"stateMutability":"nonpayable"},{"type":"function","name":"setRegistrationFee","inputs":[{"name":"newFee","type":"uint256","internalType":"uint256"}],"outputs":[],"stateMutability":"nonpayable"},{"type":"function","name":"supportsInterface","inputs":[{"name":"interfaceId","type":"bytes4","internalType":"bytes4"}],"outputs":[{"name":"","type":"bool","internalType":"bool"}],"stateMutability":"view"},{"type":"function","name":"symbol","inputs":[],"outputs":[{"name":"","type":"string","internalType":"string"}],"stateMutability":"view"},{"type":"function","name":"tokenURI","inputs":[{"name":"tokenId","type":"uint256","internalType":"uint256"}],"outputs":[{"name":"","type":"string","internalType":"string"}],"stateMutability":"view"},{"type":"function","name":"transferFrom","inputs":[{"name":"from","type":"address","internalType":"address"},{"name":"to","type":"address","internalType":"address"},{"name":"tokenId","type":"uint256","internalType":"uint256"}],"outputs":[],"stateMutability":"nonpayable"},{"type":"function","name":"transferOwnership","inputs":[{"name":"newOwner","type":"address","internalType":"address"}],"outputs":[],"stateMutability":"nonpayable"},{"type":"function","name":"unbindAndTransferDomain","inputs":[{"name":"nfcUID","type":"string","internalType":"string"},{"name":"newOwner","type":"address","internalType":"address"}],"outputs":[],"stateMutability":"nonpayable"},{"type":"function","name":"unfreezeDomain","inputs":[{"name":"tokenId","type":"uint256","internalType":"uint256"}],"outputs":[],"stateMutability":"nonpayable"},{"type":"function","name":"updateDomainMetadata","inputs":[{"name":"tokenId","type":"uint256","internalType":"uint256"},{"name":"metadata","type":"string","internalType":"string"}],"outputs":[],"stateMutability":"nonpayable"},{"type":"function","name":"userTokenIds","inputs":[{"name":"","type":"address","internalType":"address"},{"name":"","type":"uint256","internalType":"uint256"}],"outputs":[{"name":"","type":"uint256","internalType":"uint256"}],"stateMutability":"view"},{"type":"function","name":"withdraw","inputs":[],"outputs":[],"stateMutability":"nonpayable"},{"type":"event","name":"Approval","inputs":[{"name":"owner","type":"address","indexed":true,"internalType":"address"},{"name":"approved","type":"address","indexed":true,"internalType":"address"},{"name":"tokenId","type":"uint256","indexed":true,"internalType":"uint256"}],"anonymous":false},{"type":"event","name":"ApprovalForAll","inputs":[{"name":"owner","type":"address","indexed":true,"internalType":"address"},{"name":"operator","type":"address","indexed":true,"internalType":"address"},{"name":"approved","type":"bool","indexed":false,"internalType":"bool"}],"anonymous":false},{"type":"event","name":"BatchMetadataUpdate","inputs":[{"name":"_fromTokenId","type":"uint256","indexed":false,"internalType":"uint256"},{"name":"_toTokenId","type":"uint256","indexed":false,"internalType":"uint256"}],"anonymous":false},{"type":"event","name":"DomainMetadataUpdated","inputs":[{"name":"tokenId","type":"uint256","indexed":true,"internalType":"uint256"},{"name":"domain","type":"string","indexed":true,"internalType":"string"},{"name":"metadata","type":"string","indexed":false,"internalType":"string"}],"anonymous":false},{"type":"event","name":"DomainNFTMinted","inputs":[{"name":"tokenId","type":"uint256","indexed":true,"internalType":"uint256"},{"name":"domain","type":"string","indexed":true,"internalType":"string"},{"name":"owner","type":"address","indexed":true,"internalType":"address"},{"name":"registeredAt","type":"uint256","indexed":false,"internalType":"uint256"}],"anonymous":false},{"type":"event","name":"DomainNFTTransferred","inputs":[{"name":"tokenId","type":"uint256","indexed":true,"internalType":"uint256"},{"name":"domain","type":"string","indexed":true,"internalType":"string"},{"name":"from","type":"address","indexed":true,"internalType":"address"},{"name":"to","type":"address","indexed":false,"internalType":"address"}],"anonymous":false},{"type":"event","name":"MetadataUpdate","inputs":[{"name":"_tokenId","type":"uint256","indexed":false,"internalType":"uint256"}],"anonymous":false},{"type":"event","name":"NFCRegistryUpdated","inputs":[{"name":"oldRegistry","type":"address","indexed":true,"internalType":"address"},{"name":"newRegistry","type":"address","indexed":true,"internalType":"address"}],"anonymous":false},{"type":"event","name":"OperatorAuthorized","inputs":[{"name":"operator","type":"address","indexed":true,"internalType":"address"},{"name":"authorized","type":"bool","indexed":false,"internalType":"bool"}],"anonymous":false},{"type":"event","name":"OwnershipTransferred","inputs":[{"name":"previousOwner","type":"address","indexed":true,"internalType":"address"},{"name":"newOwner","type":"address","indexed":true,"internalType":"address"}],"anonymous":false},{"type":"event","name":"PrimaryDomainSet","inputs":[{"name":"user","type":"address","indexed":true,"internalType":"address"},{"name":"tokenId","type":"uint256","indexed":true,"internalType":"uint256"},{"name":"domain","type":"string","indexed":true,"internalType":"string"}],"anonymous":false},{"type":"event","name":"Transfer","inputs":[{"name":"from","type":"address","indexed":true,"internalType":"address"},{"name":"to","type":"address","indexed":true,"internalType":"address"},{"name":"tokenId","type":"uint256","indexed":true,"internalType":"uint256"}],"anonymous":false},{"type":"error","name":"ERC721IncorrectOwner","inputs":[{"name":"sender","type":"address","internalType":"address"},{"name":"tokenId","type":"uint256","internalType":"uint256"},{"name":"owner","type":"address","internalType":"address"}]},{"type":"error","name":"ERC721InsufficientApproval","inputs":[{"name":"operator","type":"address","internalType":"address"},{"name":"tokenId","type":"uint256","internalType":"uint256"}]},{"type":"error","name":"ERC721InvalidApprover","inputs":[{"name":"approver","type":"address","internalType":"address"}]},{"type":"error","name":"ERC721InvalidOperator","inputs":[{"name":"operator","type":"address","internalType":"address"}]},{"type":"error","name":"ERC721InvalidOwner","inputs":[{"name":"owner","type":"address","internalType":"address"}]},{"type":"error","name":"ERC721InvalidReceiver","inputs":[{"name":"receiver","type":"address","internalType":"address"}]},{"type":"error","name":"ERC721InvalidSender","inputs":[{"name":"sender","type":"address","internalType":"address"}]},{"type":"error","name":"ERC721NonexistentToken","inputs":[{"name":"tokenId","type":"uint256","internalType":"uint256"}]},{"type":"error","name":"OwnableInvalidOwner","inputs":[{"name":"owner","type":"address","internalType":"address"}]},{"type":"error","name":"OwnableUnauthorizedAccount","inputs":[{"name":"account","type":"address","internalType":"address"}]},{"type":"error","name":"ReentrancyGuardReentrantCall","inputs":[]}],"bytecode":{"object":"0x6080604052346104035761371b6020813803918261001c81610407565b93849283398101031261040357516001600160a01b03811690819003610403576100466040610407565b90600e82526d11551208111bdb585a5b8813919560921b602083015261006c6040610407565b600581526422aa24222760d91b602082015282519091906001600160401b038111610317575f54600181811c911680156103f9575b60208210146102f957601f8111610397575b506020601f821160011461033657819293945f9261032b575b50508160011b915f199060031b1c1916175f555b81516001600160401b03811161031757600154600181811c9116801561030d575b60208210146102f957601f8111610296575b50602092601f821160011461023557928192935f9261022a575b50508160011b915f199060031b1c1916176001555b33156102175760078054336001600160a01b03198216811790925560405191906001600160a01b03167f8be0079c531659141344cd1fd0a4f28419497f9722a3daafe3b4186f6b6457e05f80a360016008555f600f5581156101d5575060018060a01b03196010541617601055335f52601160205260405f20600160ff198254161790556040516132ee908161042d8239f35b62461bcd60e51b815260206004820152601c60248201527f496e76616c6964204e46432072656769737472792061646472657373000000006044820152606490fd5b631e4fbdf760e01b5f525f60045260245ffd5b015190505f8061012d565b601f1982169360015f52805f20915f5b86811061027e5750836001959610610266575b505050811b01600155610142565b01515f1960f88460031b161c191690555f8080610258565b91926020600181928685015181550194019201610245565b60015f527fb10e2d527612073b26eecdfd717e6a320cf44b4afac2b0732d9fcbe2b7fa0cf6601f830160051c810191602084106102ef575b601f0160051c01905b8181106102e45750610113565b5f81556001016102d7565b90915081906102ce565b634e487b7160e01b5f52602260045260245ffd5b90607f1690610101565b634e487b7160e01b5f52604160045260245ffd5b015190505f806100cc565b601f198216905f8052805f20915f5b81811061037f57509583600195969710610367575b505050811b015f556100e0565b01515f1960f88460031b161c191690555f808061035a565b9192602060018192868b015181550194019201610345565b5f80527f290decd9548b62a8d60345a988386fc84ba6bc95484008f6362f93160ef3e563601f830160051c810191602084106103ef575b601f0160051c01905b8181106103e457506100b3565b5f81556001016103d7565b90915081906103ce565b90607f16906100a1565b5f80fd5b6040519190601f01601f191682016001600160401b038111838210176103175760405256fe6080806040526004361015610012575f80fd5b5f3560e01c90816301ffc9a71461258e5750806306fdde03146124ec578063081812fc146124b0578063095ea7b3146123c65780630d537e8d1461233a57806314c44e091461231d578063181d989b146122e05780631e2ca61e1461182c57806323b872dd146118155780632661017b1461176c57806329aa4f511461175157806332752b091461170d578063364460f3146116d35780633a06831c146116ab5780633ccfd60b1461166957806342842e0e1461163a5780635ec9b71b146114785780635f06b0eb146114405780636352211e146114105780636f58a882146113b557806370a0823114611364578063715018a614611309578063750104b414611165578063788f737d146110e85780637908976b14610cc25780637d760cac14610b76578063879709a1146109875780638afbab7c1461092b5780638da5cb5b146109035780638df2de251461085957806392ddf23c146107a557806395d89b41146106db5780639af8b7aa146106b7578063a22cb46514610616578063b236f197146105c1578063b5301ced146105a6578063b88d4fde14610539578063ba32122e14610491578063bca6eec41461043c578063c320c7271461041b578063c87b56dd146103e4578063cc17e15d1461038c578063e985e9c514610335578063f0eec37a146102955763f2fde38b1461020b575f80fd5b3461029157602036600319011261029157610224612637565b61022c61312b565b6001600160a01b0316801561027e57600780546001600160a01b0319811683179091556001600160a01b03167f8be0079c531659141344cd1fd0a4f28419497f9722a3daafe3b4186f6b6457e05f80a3005b631e4fbdf760e01b5f525f60045260245ffd5b5f80fd5b34610291576020366003190112610291576004356001600160401b038111610291576102c59036906004016126f0565b6102ce81612fc6565b156102f85760405181516020928391839181908401835e8101600b81520301902054604051908152f35b60405162461bcd60e51b8152602060048201526015602482015274111bdb585a5b88191bd95cc81b9bdd08195e1a5cdd605a1b6044820152606490fd5b346102915760403660031901126102915761034e612637565b61035661264d565b9060018060a01b03165f52600560205260405f209060018060a01b03165f52602052602060ff60405f2054166040519015158152f35b34610291576040366003190112610291576103a5612637565b6001600160a01b03165f908152600d6020526040902080546024359190821015610291576020916103d591612887565b90549060031b1c604051908152f35b3461029157602036600319011261029157610417610403600435613288565b604051918291602083526020830190612613565b0390f35b346102915760203660031901126102915761043461312b565b600435600f55005b34610291576020366003190112610291576004356001600160401b03811161029157602080610470819336906004016126f0565b604051928184925191829101835e8101600b81520301902054604051908152f35b34610291576020366003190112610291576004356001600160401b038111610291576104c19036906004016126f0565b6104ca81612fa4565b156104f45760405181516020928391839181908401835e8101600c81520301902054604051908152f35b60405162461bcd60e51b815260206004820152601760248201527f4e4643206e6f7420626f756e6420746f20646f6d61696e0000000000000000006044820152606490fd5b3461029157608036600319011261029157610552612637565b61055a61264d565b90604435606435926001600160401b0384116102915736602385011215610291576105926105a49436906024816004013591016126ba565b9261059e838383612ac5565b33613152565b005b34610291575f366003190112610291576020604051601e8152f35b34610291576020366003190112610291576004356001600160401b038111610291576020806105f5819336906004016126f0565b604051928184925191829101835e8101600c81520301902054604051908152f35b346102915760403660031901126102915761062f612637565b610637612861565b6001600160a01b039091169081156106a457335f52600560205260405f20825f526020526106748160405f209060ff801983541691151516179055565b60405190151581527f17307eab39ab6107e8899845ad3d59bd9653f200f220920489ca2b5937696c3160203392a3005b50630b61174360e31b5f5260045260245ffd5b34610291576020366003190112610291576104176104036106d6612637565b612da9565b34610291575f366003190112610291576040515f6001546106fb81612748565b80845290600181169081156107815750600114610723575b610417836104038185038261267e565b60015f9081527fb10e2d527612073b26eecdfd717e6a320cf44b4afac2b0732d9fcbe2b7fa0cf6939250905b80821061076757509091508101602001610403610713565b91926001816020925483858801015201910190929161074f565b60ff191660208086019190915291151560051b840190910191506104039050610713565b34610291576020366003190112610291576001600160a01b036107c6612637565b165f52600d60205260405f20604051806020835491828152019081935f5260205f20905f5b818110610843575050508161080191038261267e565b604051918291602083019060208452518091526040830191905f5b81811061082a575050500390f35b825184528594506020938401939092019160010161081c565b82548452602090930192600192830192016107eb565b3461029157602036600319011261029157610872612637565b61087a61312b565b6001600160a01b031680156108cc57601080546001600160a01b0319811683179091556001600160a01b03167fc88229f1d8e54d31f640a733927bc56d9fcbb8cf9c2b6b87f81fc713c49bc6475f80a3005b60405162461bcd60e51b815260206004820152600f60248201526e496e76616c6964206164647265737360881b6044820152606490fd5b34610291575f366003190112610291576007546040516001600160a01b039091168152602090f35b346102915760203660031901126102915760043561094761312b565b5f8181526002602052604090205461096d906001600160a01b039081165b1615156128b0565b5f908152600a60205260409020600401805460ff19169055005b34610291576040366003190112610291576004356001600160401b03811161029157366023820112156102915780600401356109c281612870565b916109d0604051938461267e565b8183526024602084019260051b8201019036821161029157602401915b818310610b5657836024356001600160401b0381116102915736602382011215610291578060040135610a1f81612870565b91610a2d604051938461267e565b8183526024602084019260051b8201019036821161029157602401915b818310610b3d57505050610a5c61312b565b8151815103610b00575f5b82518110156105a45780610ab1610a8060019385612d95565b511515838060a01b03610a938488612d95565b51165f52601160205260405f209060ff801983541691151516179055565b818060a01b03610ac18286612d95565b51167fc176fcf7d48a6aca0d96d3b3201f7add47c4af04ce9a51f5f4eb15d528c46e216020610af08487612d95565b511515604051908152a201610a67565b60405162461bcd60e51b8152602060048201526015602482015274082e4e4c2f240d8cadccee8d040dad2e6dac2e8c6d605b1b6044820152606490fd5b8235801515810361029157815260209283019201610a4a565b82356001600160a01b0381168103610291578152602092830192016109ed565b3461029157602036600319011261029157600435606060a0604051610b9a81612663565b8281525f60208201528260408201525f838201525f60808201520152610bdb60018060a01b03610965835f52600260205260018060a01b0360405f20541690565b5f52600a602052610c7f60405f2061041760405191610bf983612663565b610c0281612780565b835260018101546001600160a01b03166020840190815290610c2660028201612780565b9060408501918252610ca160038201549360608701948552610c5b600560ff6004860154169460808a01951515865201612780565b9360a0880194855260405198899860208a525160c060208b015260e08a0190612613565b91516001600160a01b0316604089015251878203601f19016060890152612613565b9251608086015251151560a085015251838203601f190160c0850152612613565b3461029157610cd036612820565b90610cd9612e30565b335f52601160205260ff60405f20541680156110d4575b610cf9906129ad565b6001600160a01b03821690811561108f5760405191815192602081818501958087835e8101600c8152030190205493841561105a575f858152600260205260409020546001600160a01b031615611015575f858152600a60205260409020926001600160a01b03610d6987612dfc565b1694853303610fd05760205f92604051928391518091835e8101600c815203019020555f60028401610d9b8154612748565b601f8111610fb1575b505560048301805460ff191690556001600160a01b0390610dc6908690612fe8565b1680610ddf5784637e27328960e01b5f5260045260245ffd5b8084869203610f9757506001830180546001600160a01b031916831790555f848152600d6020526040812093905b845480821015610f655783610e228388612887565b90549060031b1c14610e375750600101610e0d565b905f9592939495198201918211610f5157610e66610e58610e7e9385612887565b90549060031b1c9184612887565b90919082549060031b91821b915f19901b1916179055565b80548015610f3d577f070ecc15c634e51350b3fd29489e2ca3690d9d1e5995308091afea2249bdcfe792602092610f0a925f190190610ebd8282612887565b8154905f199060031b1b19169055555b855f52600d8352610ee18560405f20612a9d565b865f52600e83528460405f205414610f2b575b855f52600e835260405f205415610f1957612931565b93604051908152a46001600855005b855f52600e83528460405f2055612931565b865f52600e83525f6040812055610ef4565b634e487b7160e01b5f52603160045260245ffd5b634e487b7160e01b5f52601160045260245ffd5b50507f070ecc15c634e51350b3fd29489e2ca3690d9d1e5995308091afea2249bdcfe791929350610f0a602091610ecd565b90846364283d7b60e01b5f5260045260245260445260645ffd5b81835260208320610fca91601f0160051c810190612a44565b87610da4565b60405162461bcd60e51b815260206004820152601e60248201527f4f6e6c7920646f6d61696e206f776e65722063616e207472616e7366657200006044820152606490fd5b60405162461bcd60e51b815260206004820152601960248201527f446f6d61696e204e465420646f6573206e6f74206578697374000000000000006044820152606490fd5b60405162461bcd60e51b815260206004820152600d60248201526c139190c81b9bdd08199bdd5b99609a1b6044820152606490fd5b60405162461bcd60e51b815260206004820152601960248201527f496e76616c6964206e6577206f776e65722061646472657373000000000000006044820152606490fd5b506007546001600160a01b03163314610cf0565b3461029157604036600319011261029157611101612637565b7fc176fcf7d48a6aca0d96d3b3201f7add47c4af04ce9a51f5f4eb15d528c46e21602061112c612861565b9261113561312b565b6001600160a01b03165f8181526011835260409020805460ff191660ff86151516179055926040519015158152a2005b34610291576040366003190112610291576004356024356001600160401b038111610291576111989036906004016126f0565b5f828152600260205260409020546111ba906001600160a01b03908116610965565b6111d66111c683612dfc565b6001600160a01b031633146128f3565b815f52600a602052600560405f2001918151926001600160401b0384116112f55761120b846112058354612748565b83612a5a565b602093601f81116001146112955780919293945f9161128a575b508160011b915f199060031b1c19161790555b805f52600a6020527f219d2dab803787033f8713df7150f14f172a1aa66b584e0a7be792d7e267302461128561127060405f20612931565b93604051918291602083526020830190612613565b0390a3005b905084015185611225565b601f19811694825f52805f20905f5b8781106112dd575082600194959697106112c5575b5050811b019055611238565b8601515f1960f88460031b161c1916905585806112b9565b9091602060018192858a0151815501930191016112a4565b634e487b7160e01b5f52604160045260245ffd5b34610291575f3660031901126102915761132161312b565b600780546001600160a01b031981169091555f906001600160a01b03167f8be0079c531659141344cd1fd0a4f28419497f9722a3daafe3b4186f6b6457e08280a3005b34610291576020366003190112610291576001600160a01b03611385612637565b1680156113a2575f526003602052602060405f2054604051908152f35b6322718ad960e21b5f525f60045260245ffd5b34610291576020366003190112610291576004356113d161312b565b5f818152600260205260409020546113f3906001600160a01b03908116610965565b5f908152600a60205260409020600401805460ff19166001179055005b3461029157602036600319011261029157602061142e600435612dfc565b6040516001600160a01b039091168152f35b34610291576020366003190112610291576001600160a01b03611461612637565b165f52600e602052602060405f2054604051908152f35b346102915761148636612820565b6010546001600160a01b03169190338390036115f5576001600160a01b03169182156115b757816020916114bf6114e1945115156129f9565b6040518080958194630af9711360e21b83528660048401526024830190612613565b03915afa9081156115ac575f91611572575b501561153d57805f52601160205260405f20600160ff198254161790557fc176fcf7d48a6aca0d96d3b3201f7add47c4af04ce9a51f5f4eb15d528c46e21602060405160018152a2005b60405162461bcd60e51b815260206004820152600d60248201526c139190c81b9bdd08189bdd5b99609a1b6044820152606490fd5b90506020813d6020116115a4575b8161158d6020938361267e565b810103126102915761159e90612a37565b826114f3565b3d9150611580565b6040513d5f823e3d90fd5b60405162461bcd60e51b8152602060048201526016602482015275496e76616c69642077616c6c6574206164647265737360501b6044820152606490fd5b60405162461bcd60e51b815260206004820152601a60248201527f4f6e6c79204e46432072656769737472792063616e2063616c6c0000000000006044820152606490fd5b34610291576105a461164b3661270e565b906040519261165b60208561267e565b5f845261059e838383612ac5565b34610291575f3660031901126102915761168161312b565b5f80808060018060a01b036007541647908282156116a2575bf1156115ac57005b506108fc61169a565b34610291575f366003190112610291576010546040516001600160a01b039091168152602090f35b34610291576020366003190112610291576004356001600160401b0381116102915761142e61170860209236906004016126f0565b612d3a565b34610291576020366003190112610291576004356001600160401b0381116102915761174761174260209236906004016126f0565b612c9d565b6040519015158152f35b34610291575f36600319011261029157602060405160018152f35b34610291576020366003190112610291576004355f52600a6020526117e860405f2061041761179a82612780565b9160018060a01b03600182015416906117b560028201612780565b906117fb6003820154936117d3600560ff6004860154169401612780565b9360405198899860c08a5260c08a0190612613565b9160208901528782036040890152612613565b9260608601521515608085015283820360a0850152612613565b34610291576105a46118263661270e565b91612ac5565b6060366003190112610291576004356001600160401b038111610291576118579036906004016126f0565b6024356001600160401b038111610291576118769036906004016126f0565b906044356001600160401b038111610291576118969036906004016126f0565b9061189f612e30565b335f52601160205260ff60405f20541680156122cc575b6118bf906129ad565b600f543410612287576118d181612e61565b1561224a576118e2835115156129f9565b6118eb83612fa4565b61220557601054604051630af9711360e21b81526020600482018190526001600160a01b039092169181806119236024820189612613565b0381855afa9081156115ac575f916121cb575b5015612191575f604051809263b5fcabc560e01b8252602060048301528180611962602482018a612613565b03915afa9081156115ac575f9161209c575b50516001600160a01b0316330361205e57604051906119c060258360208082019464616476782d60d81b86528051918291018484015e81015f838201520301601f19810184528361267e565b6119f360046020604051809482820196518091885e81016305c8aa8960e31b838201520301601b1981018452018261267e565b6119fc81612fc6565b612019576009545f198114610f5157600101928360095560405194611a2086612663565b8286526020860133815260408701968288526060810142815260808201906001825260209960405194611a538c8761267e565b5f865260a085019586528a5f52600a8c5260405f2094518051906001600160401b0382116112f5578d8291611a9283611a8c8b54612748565b8b612a5a565b81601f8411600114611fb557505f92611faa575b50508160011b915f199060031b1c19161785555b516001850180546001600160a01b0319166001600160a01b039290921691909117905551805160028501916001600160401b0382116112f557611b0782611b018554612748565b85612a5a565b8c908d601f8411600114611f3c57509180600597969492611b5c96945f92611f31575b50508160011b915f199060031b1c19161790555b516003840155511515600483019060ff801983541691151516179055565b0190518051926001600160401b0384116112f557828992611b8886611b828c9754612748565b84612a5a565b8390601f8711600114611ec9579580918596975f92611ebe575b50508160011b915f199060031b1c19161790555b8360405183818951808c835e8101600b81520301902055604051928184925191829101835e8101600c81520301902055335f52600d8552611bfa8460405f20612a9d565b335f52600e855260405f205415611eac575b604051611c19868261267e565b5f81523315611e99576001600160a01b03611c348633612fe8565b16611e865785333b611d7b575b5050835f526006855260405f20908051906001600160401b0382116112f5578190611c7682611c708654612748565b86612a5a565b8790601f8311600114611d18575f92611d0d575b50508160011b915f199060031b1c19161790555b7ff8e1a15aba9398e019f0b49df1a4fde98ee17ae345cb5f6b5e2c27f5033e8ce784604051858152a1604051918291518091835e81015f8152039020907f2a81f1813f9c87ff8a1fbe001d7d1c81c68f55a834702a5ca7190df5df0d3116604051934285523394a46001600855005b015190508780611c8a565b5f8581528981209350601f198516905b8a828210611d65575050908460019594939210611d4d575b505050811b019055611c9e565b01515f1960f88460031b161c19169055878080611d40565b6001859682939686015181550195019301611d28565b611db39160405180938192630a85bd0160e11b83523360048401525f6024840152896044840152608060648401526084830190612613565b03815f335af15f9181611e46575b50611e1557853d15611e0d573d90611dd88261269f565b91611de6604051938461267e565b82523d5f8284013e5b81519182611e0a57633250574960e11b5f523360045260245ffd5b01fd5b606090611def565b6001600160e01b03191663757a42ff60e11b01611e33578585611c41565b633250574960e11b5f523360045260245ffd5b9091508681813d8311611e7f575b611e5e818361267e565b8101031261029157516001600160e01b031981168103610291579087611dc1565b503d611e54565b6339e3563760e11b5f525f60045260245ffd5b633250574960e11b5f525f60045260245ffd5b335f52600e85528360405f2055611c0c565b015190508c80611ba2565b9590601f19821696835f52855f20975f5b818110611f1757509186979891846001959410611eff575b505050811b019055611bb6565b01515f1960f88460031b161c191690558c8080611ef2565b828401518a556001909901988d9850928701928701611eda565b015190508f80611b2a565b9190601f198416855f52835f20935f905b828210611f92575050926001928592611b5c989660059b9a989610611f7a575b505050811b019055611b3e565b01515f1960f88460031b161c191690558f8080611f6d565b80600186978294978701518155019601940190611f4d565b015190508e80611aa6565b5f8a81528181209450601f198616915b828210612001575050908460019594939210611fe9575b505050811b018555611aba565b01515f1960f88460031b161c191690558e8080611fdc565b80600186978294978701518155019601940190611fc5565b60405162461bcd60e51b815260206004820152601960248201527f446f6d61696e20616c72656164792072656769737465726564000000000000006044820152606490fd5b60405162461bcd60e51b8152602060048201526016602482015275596f7520646f6e2774206f776e2074686973204e464360501b6044820152606490fd5b90503d805f833e6120ad818361267e565b810190602081830312610291578051906001600160401b03821161029157019060c08282031261029157604051916120e483612663565b80516001600160a01b0381168103610291578352602081015160208401526040810151604084015261211860608201612a37565b606084015261212960808201612a37565b608084015260a0810151906001600160401b038211610291570181601f820112156102915780519061215a8261269f565b92612168604051948561267e565b8284526020838301011161029157815f9260208093018386015e8301015260a082015284611974565b60405162461bcd60e51b8152602060048201526012602482015271139190c81b9bdd081c9959da5cdd195c995960721b6044820152606490fd5b90506020813d6020116121fd575b816121e66020938361267e565b81010312610291576121f790612a37565b85611936565b3d91506121d9565b60405162461bcd60e51b815260206004820152601b60248201527f4e464320616c726561647920626f756e6420746f20646f6d61696e00000000006044820152606490fd5b60405162461bcd60e51b8152602060048201526015602482015274092dcecc2d8d2c840c8dedac2d2dc40e6eaccccd2f605b1b6044820152606490fd5b60405162461bcd60e51b815260206004820152601d60248201527f496e73756666696369656e7420726567697374726174696f6e206665650000006044820152606490fd5b506007546001600160a01b031633146118b6565b34610291576020366003190112610291576001600160a01b03612301612637565b165f526011602052602060ff60405f2054166040519015158152f35b34610291575f366003190112610291576020600f54604051908152f35b34610291576020366003190112610291576004355f81815260026020526040902054612370906001600160a01b03908116610965565b61237c6111c682612dfc565b335f52600e6020528060405f2055805f52600a60205261239e60405f20612931565b90337f1833e702c6de975c9005d56f858c258def9c7dba4364b1c2c08623d366c8b9cf5f80a4005b34610291576040366003190112610291576123df612637565b6024356123eb81612dfc565b3315158061249d575b80612470575b61245d5781906001600160a01b0384811691167f8c5be1e5ebec7d5bd14f71427d1e84f3dd0314c0f7b2291e5b200ac8c7c3b9255f80a45f90815260046020526040902080546001600160a01b0319166001600160a01b03909216919091179055005b63a9fbf51f60e01b5f523360045260245ffd5b506001600160a01b0381165f90815260056020908152604080832033845290915290205460ff16156123fa565b506001600160a01b0381163314156123f4565b34610291576020366003190112610291576004356124cd81612dfc565b505f526004602052602060018060a01b0360405f205416604051908152f35b34610291575f366003190112610291576040515f5f5461250b81612748565b8084529060018116908115610781575060011461253257610417836104038185038261267e565b5f8080527f290decd9548b62a8d60345a988386fc84ba6bc95484008f6362f93160ef3e563939250905b80821061257457509091508101602001610403610713565b91926001816020925483858801015201910190929161255c565b34610291576020366003190112610291576004359063ffffffff60e01b821680920361029157602091632483248360e11b81149081156125d0575b5015158152f35b6380ac58cd60e01b811491508115612602575b81156125f1575b50836125c9565b6301ffc9a760e01b149050836125ea565b635b5e139f60e01b811491506125e3565b805180835260209291819084018484015e5f828201840152601f01601f1916010190565b600435906001600160a01b038216820361029157565b602435906001600160a01b038216820361029157565b60c081019081106001600160401b038211176112f557604052565b90601f801991011681019081106001600160401b038211176112f557604052565b6001600160401b0381116112f557601f01601f191660200190565b9291926126c68261269f565b916126d4604051938461267e565b829481845281830111610291578281602093845f960137010152565b9080601f830112156102915781602061270b933591016126ba565b90565b6060906003190112610291576004356001600160a01b038116810361029157906024356001600160a01b0381168103610291579060443590565b90600182811c92168015612776575b602083101461276257565b634e487b7160e01b5f52602260045260245ffd5b91607f1691612757565b9060405191825f82549261279384612748565b80845293600181169081156127fe57506001146127ba575b506127b89250038361267e565b565b90505f9291925260205f20905f915b8183106127e25750509060206127b8928201015f6127ab565b60209193508060019154838589010152019101909184926127c9565b9050602092506127b894915060ff191682840152151560051b8201015f6127ab565b604060031982011261029157600435906001600160401b0382116102915761284a916004016126f0565b906024356001600160a01b03811681036102915790565b60243590811515820361029157565b6001600160401b0381116112f55760051b60200190565b805482101561289c575f5260205f2001905f90565b634e487b7160e01b5f52603260045260245ffd5b156128b757565b60405162461bcd60e51b8152602060048201526014602482015273151bdad95b88191bd95cc81b9bdd08195e1a5cdd60621b6044820152606490fd5b156128fa57565b60405162461bcd60e51b815260206004820152600f60248201526e2737ba103a37b5b2b71037bbb732b960891b6044820152606490fd5b60405180915f9080549061294482612748565b91600181169081156129965750600114612961575b505003902090565b9091505f5260205f205f905b82821061297f57505081015f80612959565b80548286015284935060209091019060010161296d565b60ff19168552505080151502820190505f80612959565b156129b457565b60405162461bcd60e51b815260206004820152601760248201527f4e6f7420617574686f72697a6564206f70657261746f720000000000000000006044820152606490fd5b15612a0057565b60405162461bcd60e51b815260206004820152600f60248201526e125b9d985b1a5908139190c8155251608a1b6044820152606490fd5b5190811515820361029157565b818110612a4f575050565b5f8155600101612a44565b9190601f8111612a6957505050565b6127b8925f5260205f20906020601f840160051c83019310612a93575b601f0160051c0190612a44565b9091508190612a86565b90815491680100000000000000008310156112f55782610e669160016127b895018155612887565b6001600160a01b0390911691908215611e99575f828152600260205260409020546001600160a01b0316928333151580612c0d575b5084612bda575b815f52600360205260405f2060018154019055835f52600260205260405f20826001600160601b0360a01b8254161790558382867fddf252ad1be2c89b69c2b068fc378daa952ba7f163c4a11628f55a4df523b3ef5f80a4818115159182612bd1575b82612bc6575b5050612b9f575b506001600160a01b0316808303612b8757505050565b6364283d7b60e01b5f5260045260245260445260645ffd5b825f52600a602052600160405f2001906001600160601b0360a01b8254161790555f612b71565b14159050815f612b6a565b60019250612b64565b5f84815260046020526040902080546001600160a01b0319169055845f52600360205260405f205f198154019055612b01565b80612c4c575b15612c1e575f612afa565b8385612c3657637e27328960e01b5f5260045260245ffd5b63177e802f60e01b5f523360045260245260445ffd5b503385148015612c7b575b80612c1357505f848152600460205260409020546001600160a01b03163314612c13565b505f85815260056020908152604080832033845290915290205460ff16612c57565b612ca681612e61565b15612d3557612d1660046020604051612ceb602582848082019864616476782d60d81b8a528051918291018484015e81015f838201520301601f19810183528261267e565b6040519485915180918484015e81016305c8aa8960e31b838201520301601b1981018452018261267e565b612d1f81612fc6565b15908115612d2b575090565b61270b9150613100565b505f90565b612d4381612fc6565b158015612d86575b612d355760208091604051928184925191829101835e8101600b815203019020545f52600a60205260018060a01b03600160405f2001541690565b50612d9081613100565b612d4b565b805182101561289c5760209160051b010190565b6001600160a01b03165f908152600e602052604090205480158015612df5575b612de0575f52600a60205261270b60405f20612780565b50604051612def60208261267e565b5f815290565b505f612dc9565b5f818152600260205260409020546001600160a01b0316908115612e1e575090565b637e27328960e01b5f5260045260245ffd5b600260085414612e41576002600855565b633ee5aeb560e01b5f5260045ffd5b90815181101561289c570160200190565b8051600181108015612f9a575b612f94575f5b818110612e8357505050600190565b6001600160f81b0319612e968285612e50565b5116606160f81b81101580612f86575b8015612f69575b8015612f5c575b15612f545781159081159182612f41575b80612f34575b612f2b5781612f1d575b5080612eef575b612ee857600101612e74565b5050505f90565b505f198101818111610f5157602d60f81b906001600160f81b031990612f159086612e50565b511614612edc565b602d60f81b1490505f612ed5565b50505050505f90565b50602d60f81b8114612ecb565b505f198401848111610f51578314612ec5565b505050505f90565b50602d60f81b8114612eb4565b50600360fc1b8110801590612ead5750603960f81b811115612ead565b50603d60f91b811115612ea6565b50505f90565b5060198111612e6e565b60208091604051928184925191829101835e8101600c81520301902054151590565b60208091604051928184925191829101835e8101600b81520301902054151590565b5f828152600260205260409020546001600160a01b0316918291826130cd575b6001600160a01b031691821515908390826130b5575b835f52600260205260405f20826001600160601b0360a01b8254161790558382877fddf252ad1be2c89b69c2b068fc378daa952ba7f163c4a11628f55a4df523b3ef5f80a480151592836130ad575b50826130a2575b505061307f57505090565b5f52600a602052600160405f2001906001600160601b0360a01b82541617905590565b14159050825f613074565b92505f61306d565b815f52600360205260405f206001815401905561301e565b5f82815260046020526040902080546001600160a01b0319169055835f52600360205260405f205f198154019055613008565b60208091604051928184925191829101835e8101600b8152030190205415613126575f90565b600190565b6007546001600160a01b0316330361313f57565b63118cdaa760e01b5f523360045260245ffd5b823b613160575b5050505050565b604051630a85bd0160e11b81526001600160a01b0391821660048201529181166024830152604482019390935260806064820152911691602090829081906131ac906084830190612613565b03815f865af15f9181613243575b5061320f57503d15613208573d6131d08161269f565b906131de604051928361267e565b81523d5f602083013e5b805190816132035782633250574960e11b5f5260045260245ffd5b602001fd5b60606131e8565b6001600160e01b03191663757a42ff60e11b0161323157505f80808080613159565b633250574960e11b5f5260045260245ffd5b9091506020813d602011613280575b8161325f6020938361267e565b8101031261029157516001600160e01b03198116810361029157905f6131ba565b3d9150613252565b61329181612dfc565b505f5260066020526132a560405f20612780565b5f6040516132b460208261267e565b529056fea264697066735822122016ff4cc130231039719d7b553504f2793af70e53efd8d0d899ff21eb785c3f6c64736f6c634300081e0033","linkReferences":{}},"methodIdentifiers":{"MAX_DOMAIN_LENGTH()":"b5301ced","MIN_DOMAIN_LENGTH()":"29aa4f51","approve(address,uint256)":"095ea7b3","authorizeNewNFCUser(string,address)":"5ec9b71b","authorizedOperators(address)":"181d989b","balanceOf(address)":"70a08231","batchSetAuthorizedOperators(address[],bool[])":"879709a1","domainInfos(uint256)":"2661017b","domainToTokenId(string)":"bca6eec4","emergencyFreezeDomain(uint256)":"8afbab7c","getApproved(uint256)":"081812fc","getDomainInfo(uint256)":"7d760cac","getTokenIdByDomain(string)":"f0eec37a","getTokenIdByNFC(string)":"ba32122e","getUserTokenIds(address)":"92ddf23c","isApprovedForAll(address,address)":"e985e9c5","isDomainAvailable(string)":"32752b09","mintDomainNFT(string,string,string)":"1e2ca61e","name()":"06fdde03","nfcRegistry()":"3a06831c","nfcToTokenId(string)":"b236f197","owner()":"8da5cb5b","ownerOf(uint256)":"6352211e","primaryDomainTokenId(address)":"5f06b0eb","registrationFee()":"14c44e09","renounceOwnership()":"715018a6","resolveDomain(string)":"364460f3","reverseResolve(address)":"9af8b7aa","safeTransferFrom(address,address,uint256)":"42842e0e","safeTransferFrom(address,address,uint256,bytes)":"b88d4fde","setApprovalForAll(address,bool)":"a22cb465","setAuthorizedOperator(address,bool)":"788f737d","setNFCRegistry(address)":"8df2de25","setPrimaryDomain(uint256)":"0d537e8d","setRegistrationFee(uint256)":"c320c727","supportsInterface(bytes4)":"01ffc9a7","symbol()":"95d89b41","tokenURI(uint256)":"c87b56dd","transferFrom(address,address,uint256)":"23b872dd","transferOwnership(address)":"f2fde38b","unbindAndTransferDomain(string,address)":"7908976b","unfreezeDomain(uint256)":"6f58a882","updateDomainMetadata(uint256,string)":"750104b4","userTokenIds(address,uint256)":"cc17e15d","withdraw()":"3ccfd60b"},"id":44}