{"abi":[{"type":"constructor","inputs":[],"stateMutability":"nonpayable"},{"type":"function","name":"authorizeOperator","inputs":[{"name":"operatorId","type":"string","internalType":"string"},{"name":"authorized","type":"bool","internalType":"bool"}],"outputs":[],"stateMutability":"nonpayable"},{"type":"function","name":"authorizedOperators","inputs":[{"name":"","type":"string","internalType":"string"}],"outputs":[{"name":"","type":"bool","internalType":"bool"}],"stateMutability":"view"},{"type":"function","name":"batchDetectBlankCards","inputs":[{"name":"nfcUIDs","type":"string[]","internalType":"string[]"},{"name":"walletAddresses","type":"address[]","internalType":"address[]"}],"outputs":[{"name":"","type":"uint256","internalType":"uint256"}],"stateMutability":"nonpayable"},{"type":"function","name":"bindPasskeyWithSig","inputs":[{"name":"passkeyId","type":"string","internalType":"string"},{"name":"wallet","type":"address","internalType":"address"},{"name":"deadline","type":"uint256","internalType":"uint256"},{"name":"nonce","type":"uint256","internalType":"uint256"},{"name":"signature","type":"bytes","internalType":"bytes"}],"outputs":[{"name":"","type":"bool","internalType":"bool"}],"stateMutability":"nonpayable"},{"type":"function","name":"catNFTContract","inputs":[],"outputs":[{"name":"","type":"address","internalType":"contract ICatNFT"}],"stateMutability":"view"},{"type":"function","name":"detectAndBindBlankCard","inputs":[{"name":"nfcUID","type":"string","internalType":"string"},{"name":"newWalletAddress","type":"address","internalType":"address"}],"outputs":[{"name":"","type":"bool","internalType":"bool"}],"stateMutability":"nonpayable"},{"type":"function","name":"emergencyUnbindNFCWallet","inputs":[{"name":"nfcUID","type":"string","internalType":"string"}],"outputs":[],"stateMutability":"nonpayable"},{"type":"function","name":"getNFCBinding","inputs":[{"name":"nfcUID","type":"string","internalType":"string"}],"outputs":[{"name":"","type":"tuple","internalType":"struct NFCWalletRegistry.NFCBinding","components":[{"name":"walletAddress","type":"address","internalType":"address"},{"name":"boundAt","type":"uint256","internalType":"uint256"},{"name":"unboundAt","type":"uint256","internalType":"uint256"},{"name":"isActive","type":"bool","internalType":"bool"},{"name":"isBlank","type":"bool","internalType":"bool"},{"name":"metadata","type":"string","internalType":"string"}]}],"stateMutability":"view"},{"type":"function","name":"getNFCHistory","inputs":[{"name":"nfcUID","type":"string","internalType":"string"}],"outputs":[{"name":"","type":"tuple[]","internalType":"struct NFCWalletRegistry.NFCBinding[]","components":[{"name":"walletAddress","type":"address","internalType":"address"},{"name":"boundAt","type":"uint256","internalType":"uint256"},{"name":"unboundAt","type":"uint256","internalType":"uint256"},{"name":"isActive","type":"bool","internalType":"bool"},{"name":"isBlank","type":"bool","internalType":"bool"},{"name":"metadata","type":"string","internalType":"string"}]}],"stateMutability":"view"},{"type":"function","name":"getNonce","inputs":[{"name":"wallet","type":"address","internalType":"address"}],"outputs":[{"name":"","type":"uint256","internalType":"uint256"}],"stateMutability":"view"},{"type":"function","name":"getWalletNFC","inputs":[{"name":"walletAddress","type":"address","internalType":"address"}],"outputs":[{"name":"","type":"string","internalType":"string"}],"stateMutability":"view"},{"type":"function","name":"initializeBlankCard","inputs":[{"name":"nfcUID","type":"string","internalType":"string"},{"name":"initMetadata","type":"string","internalType":"string"}],"outputs":[],"stateMutability":"nonpayable"},{"type":"function","name":"isAuthorizedOperator","inputs":[{"name":"operatorId","type":"string","internalType":"string"}],"outputs":[{"name":"","type":"bool","internalType":"bool"}],"stateMutability":"view"},{"type":"function","name":"isBlankCard","inputs":[{"name":"nfcUID","type":"string","internalType":"string"}],"outputs":[{"name":"","type":"bool","internalType":"bool"}],"stateMutability":"view"},{"type":"function","name":"isNFCBound","inputs":[{"name":"nfcUID","type":"string","internalType":"string"}],"outputs":[{"name":"","type":"bool","internalType":"bool"}],"stateMutability":"view"},{"type":"function","name":"isWalletBound","inputs":[{"name":"walletAddress","type":"address","internalType":"address"}],"outputs":[{"name":"","type":"bool","internalType":"bool"}],"stateMutability":"view"},{"type":"function","name":"nfcBindings","inputs":[{"name":"","type":"string","internalType":"string"}],"outputs":[{"name":"walletAddress","type":"address","internalType":"address"},{"name":"boundAt","type":"uint256","internalType":"uint256"},{"name":"unboundAt","type":"uint256","internalType":"uint256"},{"name":"isActive","type":"bool","internalType":"bool"},{"name":"isBlank","type":"bool","internalType":"bool"},{"name":"metadata","type":"string","internalType":"string"}],"stateMutability":"view"},{"type":"function","name":"nfcHistory","inputs":[{"name":"","type":"string","internalType":"string"},{"name":"","type":"uint256","internalType":"uint256"}],"outputs":[{"name":"walletAddress","type":"address","internalType":"address"},{"name":"boundAt","type":"uint256","internalType":"uint256"},{"name":"unboundAt","type":"uint256","internalType":"uint256"},{"name":"isActive","type":"bool","internalType":"bool"},{"name":"isBlank","type":"bool","internalType":"bool"},{"name":"metadata","type":"string","internalType":"string"}],"stateMutability":"view"},{"type":"function","name":"nonces","inputs":[{"name":"","type":"address","internalType":"address"}],"outputs":[{"name":"","type":"uint256","internalType":"uint256"}],"stateMutability":"view"},{"type":"function","name":"owner","inputs":[],"outputs":[{"name":"","type":"address","internalType":"address"}],"stateMutability":"view"},{"type":"function","name":"passkeyToWallet","inputs":[{"name":"","type":"string","internalType":"string"}],"outputs":[{"name":"","type":"address","internalType":"address"}],"stateMutability":"view"},{"type":"function","name":"renounceOwnership","inputs":[],"outputs":[],"stateMutability":"nonpayable"},{"type":"function","name":"selfBindBlankCard","inputs":[{"name":"nfcUID","type":"string","internalType":"string"}],"outputs":[{"name":"","type":"bool","internalType":"bool"}],"stateMutability":"nonpayable"},{"type":"function","name":"selfBindPasskey","inputs":[{"name":"passkeyId","type":"string","internalType":"string"}],"outputs":[{"name":"","type":"bool","internalType":"bool"}],"stateMutability":"nonpayable"},{"type":"function","name":"setCatNFTContract","inputs":[{"name":"_catNFTContract","type":"address","internalType":"address"}],"outputs":[],"stateMutability":"nonpayable"},{"type":"function","name":"sponsorBindBlankCard","inputs":[{"name":"nfcUID","type":"string","internalType":"string"},{"name":"wallet","type":"address","internalType":"address"},{"name":"deadline","type":"uint256","internalType":"uint256"},{"name":"nonce","type":"uint256","internalType":"uint256"},{"name":"signature","type":"bytes","internalType":"bytes"}],"outputs":[{"name":"","type":"bool","internalType":"bool"}],"stateMutability":"nonpayable"},{"type":"function","name":"totalBindings","inputs":[],"outputs":[{"name":"","type":"uint256","internalType":"uint256"}],"stateMutability":"view"},{"type":"function","name":"totalUnbindings","inputs":[],"outputs":[{"name":"","type":"uint256","internalType":"uint256"}],"stateMutability":"view"},{"type":"function","name":"transferOwnership","inputs":[{"name":"newOwner","type":"address","internalType":"address"}],"outputs":[],"stateMutability":"nonpayable"},{"type":"function","name":"unbindNFCWallet","inputs":[{"name":"nfcUID","type":"string","internalType":"string"},{"name":"ownerSignature","type":"bytes","internalType":"bytes"}],"outputs":[],"stateMutability":"nonpayable"},{"type":"function","name":"updateNFCMetadata","inputs":[{"name":"nfcUID","type":"string","internalType":"string"},{"name":"metadata","type":"string","internalType":"string"}],"outputs":[],"stateMutability":"nonpayable"},{"type":"function","name":"walletToNFC","inputs":[{"name":"","type":"address","internalType":"address"}],"outputs":[{"name":"","type":"string","internalType":"string"}],"stateMutability":"view"},{"type":"function","name":"walletToPasskey","inputs":[{"name":"","type":"address","internalType":"address"}],"outputs":[{"name":"","type":"string","internalType":"string"}],"stateMutability":"view"},{"type":"event","name":"BlankCardDetected","inputs":[{"name":"nfcUID","type":"string","indexed":true,"internalType":"string"},{"name":"newWallet","type":"address","indexed":true,"internalType":"address"},{"name":"timestamp","type":"uint256","indexed":false,"internalType":"uint256"}],"anonymous":false},{"type":"event","name":"CardInitialized","inputs":[{"name":"nfcUID","type":"string","indexed":true,"internalType":"string"},{"name":"walletAddress","type":"address","indexed":true,"internalType":"address"},{"name":"timestamp","type":"uint256","indexed":false,"internalType":"uint256"}],"anonymous":false},{"type":"event","name":"NFCCardReset","inputs":[{"name":"nfcUID","type":"string","indexed":true,"internalType":"string"},{"name":"previousWallet","type":"address","indexed":true,"internalType":"address"},{"name":"resetAt","type":"uint256","indexed":false,"internalType":"uint256"}],"anonymous":false},{"type":"event","name":"NFCMetadataUpdated","inputs":[{"name":"nfcUID","type":"string","indexed":true,"internalType":"string"},{"name":"metadata","type":"string","indexed":false,"internalType":"string"}],"anonymous":false},{"type":"event","name":"NFCWalletBound","inputs":[{"name":"nfcUID","type":"string","indexed":true,"internalType":"string"},{"name":"walletAddress","type":"address","indexed":true,"internalType":"address"},{"name":"boundAt","type":"uint256","indexed":false,"internalType":"uint256"}],"anonymous":false},{"type":"event","name":"NFCWalletUnbound","inputs":[{"name":"nfcUID","type":"string","indexed":true,"internalType":"string"},{"name":"walletAddress","type":"address","indexed":true,"internalType":"address"},{"name":"unboundAt","type":"uint256","indexed":false,"internalType":"uint256"},{"name":"cardReset","type":"bool","indexed":false,"internalType":"bool"}],"anonymous":false},{"type":"event","name":"OperatorAuthorized","inputs":[{"name":"operatorId","type":"string","indexed":true,"internalType":"string"},{"name":"authorized","type":"bool","indexed":false,"internalType":"bool"}],"anonymous":false},{"type":"event","name":"OwnershipTransferred","inputs":[{"name":"previousOwner","type":"address","indexed":true,"internalType":"address"},{"name":"newOwner","type":"address","indexed":true,"internalType":"address"}],"anonymous":false},{"type":"event","name":"PasskeyBound","inputs":[{"name":"passkeyId","type":"string","indexed":true,"internalType":"string"},{"name":"walletAddress","type":"address","indexed":true,"internalType":"address"},{"name":"boundAt","type":"uint256","indexed":false,"internalType":"uint256"}],"anonymous":false},{"type":"error","name":"OwnableInvalidOwner","inputs":[{"name":"owner","type":"address","internalType":"address"}]},{"type":"error","name":"OwnableUnauthorizedAccount","inputs":[{"name":"account","type":"address","internalType":"address"}]},{"type":"error","name":"StringsInsufficientHexLength","inputs":[{"name":"value","type":"uint256","internalType":"uint256"},{"name":"length","type":"uint256","internalType":"uint256"}]}],"bytecode":{"object":"0x608080604052346071573315605e575f8054336001600160a01b0319821681178355916001600160a01b03909116907f8be0079c531659141344cd1fd0a4f28419497f9722a3daafe3b4186f6b6457e09080a361297390816100768239f35b631e4fbdf760e01b5f525f60045260245ffd5b5f80fdfe60806040526004361015610011575f80fd5b5f3560e01c806314b8f1e4146102155780631d46d6e814610210578063220bef291461020b5780632a0ae6a8146102065780632be5c44c146102015780632c23ff5e146101a75780632d0335ab146101c55780633691516c146101fc578063379e3106146101f757806339797b26146101f25780633ef8d2fa146101ed57806340749ba8146101e8578063500c80e9146101e357806351893662146101de57806355807838146101d957806363a55991146101d4578063715018a6146101cf5780637ccef9de146101ca5780637ecebe00146101c5578063815d79f5146101c05780638aff019a146101bb5780638da5cb5b146101b65780639104f2e8146101985780639fd3b788146101b1578063b5fcabc5146101ac578063b9aafc81146101a7578063d52bb1d9146101a2578063d7aff1461461019d578063db19d19814610198578063e3fd2e3a14610193578063e4a97b941461018e578063eb588834146101895763f2fde38b14610184575f80fd5b61159f565b611408565b6113eb565b611255565b611050565b611238565b6111ac565b6108bd565b61113b565b61107a565b611029565b611001565b610f89565b610909565b610ec2565b610e6b565b610e12565b610d95565b610c66565b610c16565b610b64565b610b29565b610a4f565b610979565b610941565b610877565b610787565b61061b565b61052a565b610234565b600435906001600160a01b038216820361023057565b5f80fd5b34610230576020366003190112610230576001600160a01b0361025561021a565b165f526003602052602061026c60405f20546103f3565b1515604051908152f35b634e487b7160e01b5f52604160045260245ffd5b60c081019081106001600160401b038211176102a557604052565b610276565b90601f801991011681019081106001600160401b038211176102a557604052565b604051906102da60c0836102aa565b565b6001600160401b0381116102a557601f01601f191660200190565b81601f8201121561023057602081359101610311826102dc565b9261031f60405194856102aa565b8284528282011161023057815f92602092838601378301015290565b805191908290602001825e015f815290565b602061035f916040519283809261033b565b600481520301902090565b602061037c916040519283809261033b565b600581520301902090565b6020610399916040519283809261033b565b600181520301902090565b60206103b6916040519283809261033b565b600281520301902090565b634e487b7160e01b5f52603260045260245ffd5b80548210156103ee575f52600560205f20910201905f90565b6103c1565b90600182811c92168015610421575b602083101461040d57565b634e487b7160e01b5f52602260045260245ffd5b91607f1691610402565b9060405191825f82549261043e846103f3565b80845293600181169081156104a75750600114610463575b506102da925003836102aa565b90505f9291925260205f20905f915b81831061048b5750509060206102da928201015f610456565b6020919350806001915483858901015201910190918492610472565b9050602092506102da94915060ff191682840152151560051b8201015f610456565b805180835260209291819084018484015e5f828201840152601f01601f1916010190565b9261052796959260c0959260018060a01b031685526020850152604084015215156060830152151560808201528160a082015201906104c9565b90565b34610230576040366003190112610230576004356001600160401b0381116102305761055a9036906004016102f7565b61056f6020602435926040519283809261033b565b60028152030190209081548110156102305761058a916103d5565b5060018060a01b038154166105cd6001830154916002840154936105b560046003830154920161042b565b9160405195869560ff808560081c16941692876104ed565b0390f35b906040600319830112610230576004356001600160401b03811161023057826105fc916004016102f7565b91602435906001600160401b03821161023057610527916004016102f7565b3461023057610629366105d1565b60ff61063c6106373361267e565b61034d565b5416801561074a575b61064e9061162e565b61065f61065a836118fb565b61167a565b60405160208161066f818661033b565b6001815203019020600381019081549160ff8360081c1615610711576106d2936106b66106bf926106ab6106a66106cc9760ff1690565b6116b6565b805461ff0019169055565b60048301611750565b546001600160a01b031690565b91611815565b6040514281526001600160a01b03909216917f71ac2ce3ef0847e3c0817e3591c32b6e8a9a14d9aed5bc69f6ef1e0f717d66199080602081015b0390a3005b60405162461bcd60e51b815260206004820152601160248201527043617264206973206e6f7420626c616e6b60781b6044820152606490fd5b505f546001600160a01b03163314610645565b602060031982011261023057600435906001600160401b03821161023057610527916004016102f7565b34610230576108376107983661075d565b6107a48151151561182b565b6107d06040516107b4818461033b565b600581528190036020019020546001600160a01b03161561186b565b335f5260066020526107ed6107e760405f20611624565b156118af565b610819336107fa8361036a565b80546001600160a01b0319166001600160a01b03909216919091179055565b335f908152600660205260409020610832908290611750565b611815565b6040514281523391907f2af302779d6ff89c42abc3f712e54e7f2cfaf399105806682386d0be050b44249080602081015b0390a360405160018152602090f35b3461023057602061088f61088a3661075d565b6118fb565b6040519015158152f35b634e487b7160e01b5f525f60045260245ffd5b9060206105279281815201906104c9565b34610230576020366003190112610230576001600160a01b036108de61021a565b165f5260036020526105cd6108f560405f2061042b565b6040519182916020835260208301906104c9565b34610230576020366003190112610230576001600160a01b0361092a61021a565b165f526007602052602060405f2054604051908152f35b34610230576020366003190112610230576001600160a01b0361096261021a565b165f5260066020526105cd6108f560405f2061042b565b3461023057610998602061098c3661075d565b6040519283809261033b565b600181520301902060018060a01b038154166105cd6001830154916002840154936105b560046003830154920161042b565b6001600160401b0381116102a55760051b60200190565b9080601f83011215610230578135906109f9826109ca565b92610a0760405194856102aa565b82845260208085019360051b82010191821161023057602001915b818310610a2f5750505090565b82356001600160a01b038116810361023057815260209283019201610a22565b34610230576040366003190112610230576004356001600160401b0381116102305736602382011215610230578060040135610a8a816109ca565b91610a9860405193846102aa565b8183526024602084019260051b820101903682116102305760248101925b828410610afa57846024356001600160401b038111610230576105cd91610ae4610aea9236906004016109e1565b9061191f565b6040519081529081906020820190565b83356001600160401b03811161023057602091610b1e8392602436918701016102f7565b815201930192610ab6565b34610230576020610b393661075d565b610b46604051809261033b565b6005815281900382019020546040516001600160a01b039091168152f35b34610230576040366003190112610230576004356001600160401b03811161023057610b949036906004016102f7565b6024358015159182820361023057610c09602091610bfd7f852cbaee805afba09bc1c03514961a5637e381de998af7fbfb21c890e3e1429e94610bd5612725565b6040518581610be4818761033b565b60048152030190209060ff801983541691151516179055565b6040519182809261033b565b03902092604051908152a2005b34610230576040366003190112610230576004356001600160401b03811161023057610c469036906004016102f7565b602435906001600160a01b03821682036102305760209161088f91611a39565b34610230576040366003190112610230576004356001600160401b03811161023057610c969036906004016102f7565b6024356001600160401b03811161023057610cb8610d5d9136906004016102f7565b91610cc561065a826118fb565b604051602081610cd5818561033b565b600181520301902080546001600160a01b031693610d0590610d0090610cf9611ff2565b858861274b565b612016565b6001600160a01b0384165f908152600360205260409020610d2590612056565b60038101805460ff19169055600242910155610d4a610d456008546120b5565b600855565b610832610d58600954611a26565b600955565b604080514281525f60208201527fd07f8b0971f74b862e44be709af68f70f3ca6d797015825b2dd12f126cc899fa918190810161070c565b3461023057602061088f610da83661075d565b6120eb565b60a0600319820112610230576004356001600160401b0381116102305781610dd7916004016102f7565b916024356001600160a01b038116810361023057916044359160643591608435906001600160401b03821161023057610527916004016102f7565b3461023057602061088f610e2536610dad565b9360ff610e376106379593953361267e565b54168015610e4e575b610e499061162e565b6123ae565b505f546001600160a01b03163314610e40565b5f91031261023057565b34610230575f36600319011261023057610e83612725565b5f80546001600160a01b0319811682556001600160a01b03167f8be0079c531659141344cd1fd0a4f28419497f9722a3daafe3b4186f6b6457e08280a3005b3461023057602061088f610ed53661075d565b61259d565b9060c060a061052793600180831b03815116845260208101516020850152604081015160408501526060810151151560608501526080810151151560808501520151918160a082015201906104c9565b602081016020825282518091526040820191602060408360051b8301019401925f915b838310610f5c57505050505090565b9091929394602080610f7a600193603f198682030187528951610eda565b97019301930191939290610f4d565b3461023057610f9c602061098c3661075d565b60028152030190208054610faf816109ca565b91610fbd60405193846102aa565b81835260208301905f5260205f205f915b838310610fe357604051806105cd8782610f2a565b60056020600192610ff3856125d8565b815201920192019190610fce565b34610230575f36600319011261023057600a546040516001600160a01b039091168152602090f35b34610230575f366003190112610230575f546040516001600160a01b039091168152602090f35b3461023057602060ff6110668261098c3661075d565b600481520301902054166040519015158152f35b34610230576110883661075d565b60ff6110966106373361267e565b54168015611128575b6110a89061162e565b6110b461065a826118fb565b6110ef6040516020816110c7818661033b565b60018152030190209160018060a01b0383541692835f526003602052610d2560405f20612056565b60408051428152600160208201527fd07f8b0971f74b862e44be709af68f70f3ca6d797015825b2dd12f126cc899fa918190810161070c565b505f546001600160a01b0316331461109f565b34610230576105cd61119861118b60206111543661075d565b606060a06040516111648161028a565b5f81525f858201525f60408201525f838201525f6080820152015261098c61065a826118fb565b60018152030190206125d8565b604051918291602083526020830190610eda565b34610230576020366003190112610230576111c561021a565b6111cd612725565b6001600160a01b031680156111f3576001600160601b0360a01b600a541617600a555f80f35b60405162461bcd60e51b815260206004820152601860248201527f496e76616c696420636f6e7472616374206164647265737300000000000000006044820152606490fd5b34610230575f366003190112610230576020600954604051908152f35b346102305761133a61139a61132c61134861134361127236610dad565b93969160ff6112876106379b93959b3361267e565b541680156113d8575b6112999061162e565b6112a58851151561182b565b6112b181421115612274565b6001600160a01b038a165f9081526007602052604090206112d69085905b54146122aa565b6112f46001600160a01b036112ed6106bf8b61036a565b161561186b565b6001600160a01b038a165f908152600660205260409020611318906107e790611624565b60405192839160208301958a8d3089612634565b03601f1981018352826102aa565b51902086612822565b612345565b6001600160a01b0383165f9081526007602052604090206113698154611a26565b9055611378836107fa8361036a565b6001600160a01b0383165f908152600660205260409020610832908290611750565b6040514281526001600160a01b03909216917f2af302779d6ff89c42abc3f712e54e7f2cfaf399105806682386d0be050b4424908060208101610868565b505f546001600160a01b03163314611290565b34610230575f366003190112610230576020600854604051908152f35b3461023057611416366105d1565b9060ff6114256106373361267e565b5416801561158c575b6114379061162e565b61144361065a826118fb565b6004604051602081611455818661033b565b60018152030190200182516001600160401b0381116102a5576114828161147c84546103f3565b8461170d565b6020601f82116001146114fc57926114ec926114d8836114df947f0908d7e46fe6ac93e152e3a396caf8b829364d342ce6ba6d3ff29e36f5e177b1975f916114f1575b508160011b915f199060031b1c19161790565b9055611815565b92604051918291826108ac565b0390a2005b90508801515f6114c5565b601f1982169061150f845f5260205f2090565b915f5b8181106115745750837f0908d7e46fe6ac93e152e3a396caf8b829364d342ce6ba6d3ff29e36f5e177b196936114ec96936114df966001941061155c575b5050811b019055611815565b8901515f1960f88460031b161c191690555f80611550565b9192602060018192868b015181550194019201611512565b505f546001600160a01b0316331461142e565b34610230576020366003190112610230576115b861021a565b6115c0612725565b6001600160a01b03168015611611575f80546001600160a01b03198116831782556001600160a01b0316907f8be0079c531659141344cd1fd0a4f28419497f9722a3daafe3b4186f6b6457e09080a3005b631e4fbdf760e01b5f525f60045260245ffd5b61052790546103f3565b1561163557565b60405162461bcd60e51b815260206004820152601760248201527f4e6f7420617574686f72697a6564206f70657261746f720000000000000000006044820152606490fd5b1561168157565b60405162461bcd60e51b815260206004820152600d60248201526c139190c81b9bdd08189bdd5b99609a1b6044820152606490fd5b156116bd57565b60405162461bcd60e51b815260206004820152601260248201527143617264206973206e6f742061637469766560701b6044820152606490fd5b818110611702575050565b5f81556001016116f7565b9190601f811161171c57505050565b6102da925f5260205f20906020601f840160051c83019310611746575b601f0160051c01906116f7565b9091508190611739565b91909182516001600160401b0381116102a5576117718161147c84546103f3565b6020601f82116001146117b05781906117a19394955f926117a5575b50508160011b915f199060031b1c19161790565b9055565b015190505f8061178d565b601f198216906117c3845f5260205f2090565b915f5b8181106117fd575095836001959697106117e5575b505050811b019055565b01515f1960f88460031b161c191690555f80806117db565b9192602060018192868b0151815501940192016117c6565b611825906040519182809261033b565b03902090565b1561183257565b60405162461bcd60e51b8152602060048201526011602482015270125b9d985b1a59081c185cdcdad95e5259607a1b6044820152606490fd5b1561187257565b60405162461bcd60e51b815260206004820152601560248201527414185cdcdad95e48185b1c9958591e48189bdd5b99605a1b6044820152606490fd5b156118b657565b60405162461bcd60e51b815260206004820152601c60248201527f57616c6c657420616c726561647920626f756e6420706173736b6579000000006044820152606490fd5b6003611911602060ff936040519283809261033b565b600181520301902001541690565b91909160ff6119306106373361267e565b541680156119eb575b6119429061162e565b80518351036119ae575f905f5b81518110156119a75761198661196582846119fe565b5161198061197384896119fe565b516001600160a01b031690565b90611a39565b611993575b60010161194f565b9161199f600191611a26565b92905061198b565b5090925050565b60405162461bcd60e51b8152602060048201526015602482015274082e4e4c2f240d8cadccee8d040dad2e6dac2e8c6d605b1b6044820152606490fd5b505f546001600160a01b03163314611939565b80518210156103ee5760209160051b010190565b634e487b7160e01b5f52601160045260245ffd5b5f198114611a345760010190565b611a12565b906105279160ff611a4c6106373361267e565b54168015611a63575b611a5e9061162e565b611e06565b505f546001600160a01b03163314611a55565b15611a7d57565b60405162461bcd60e51b815260206004820152600f60248201526e125b9d985b1a5908139190c8155251608a1b6044820152606490fd5b15611abb57565b60405162461bcd60e51b8152602060048201526016602482015275496e76616c69642077616c6c6574206164647265737360501b6044820152606490fd5b60405190611b086040836102aa565b600c82526b185d5d1bd7d8dc99585d195960a21b6020830152565b815181546001600160a01b0319166001600160a01b039190911617815590919060a0906004906020850151600182015560408501516002820155611b9b60038201611b8060608801511515829060ff801983541691151516179055565b6080870151815461ff00191690151560081b61ff0016179055565b019201519182516001600160401b0381116102a557611bbe8161147c84546103f3565b6020601f8211600114611bed5781906117a19394955f926117a55750508160011b915f199060031b1c19161790565b601f19821690611c00845f5260205f2090565b915f5b818110611c21575095836001959697106117e557505050811b019055565b9192602060018192868b015181550194019201611c03565b919091828114611d1457611c4d83546103f3565b6001600160401b0381116102a557611c698161147c84546103f3565b5f93601f8211600114611ca3576117a192939482915f92611c985750508160011b915f199060031b1c19161790565b015490505f8061178d565b611cb5601f198316915f5260205f2090565b94611cc3845f5260205f2090565b915f5b818110611cfc57509583600195969710611ce457505050811b019055565b01545f1960f88460031b161c191690555f80806117db565b9192600180602092868b015481550194019201611cc6565b509050565b8054680100000000000000008110156102a557611d3b916001820181556103d5565b611dce57818103611d4a575050565b815481546001600160a01b0319166001600160a01b03919091161781556102da9160049081906001810154600185015560028101546002850155611dc66003850160ff60038401611daa82825416849060ff801983541691151516179055565b5460081c1661ff00825491151560081b169061ff001916179055565b019101611c39565b610899565b90611deb6020919493946040845260408401906104c9565b6001600160a01b03909416910152565b6040513d5f823e3d90fd5b90611e1382511515611a76565b6001600160a01b03811691611e29831515611ab4565b611e32816118fb565b611feb576001600160a01b0382165f908152600360205260409020611e5690611624565b611feb57611ea6611e656102cb565b6001600160a01b03841681524260208201525f60408201526001606082015260016080820152611e93611af9565b60a0820152611ea183610387565b611b23565b611ec1611eb2826103a4565b611ebb83610387565b90611d19565b6001600160a01b0382165f908152600360205260409020611ee3908290611750565b611ef1610d45600854611a26565b600a54611f0e906001600160a01b03165b6001600160a01b031690565b916001600160a01b038316611f9a575b50611f64915082611f2e82611815565b6040514281527fad7f881728ad0b1e28f5d90b6c6072865873a8cf9e08deda8ec28bc61328915e9080602081015b0390a3611815565b6040514281527ff30957385097ba7655e849d7b0140a25c8e1d7d9f461023d39f531ee8fafe22f9080602081015b0390a3600190565b823b15610230575f611fc8611f64948293604051948580948193635ec9b71b60e01b83528960048401611dd3565b03925af115611f1e5780611fdf5f611fe5936102aa565b80610e61565b5f611f1e565b5050505f90565b604051906120016040836102aa565b60068252651d5b989a5b9960d21b6020830152565b1561201d57565b60405162461bcd60e51b8152602060048201526011602482015270496e76616c6964207369676e617475726560781b6044820152606490fd5b61206081546103f3565b908161206a575050565b81601f5f931160011461207b575055565b8183526020832061209791601f0160051c8101906001016116f7565b808252602082209081548360011b9084198560031b1c191617905555565b8015611a34575f190190565b604051906120d06040836102aa565b600c82526b1cd95b1997d8dc99585d195960a21b6020830152565b6120f781511515611a76565b612100816118fb565b61226f57335f90815260036020526040902061211b90611624565b61226f5761214f61212a6102cb565b3381524260208201525f60408201526001606082015260016080820152611e936120c1565b61215b611eb2826103a4565b335f908152600360205260409020612174908290611750565b612182610d45600854611a26565b600a54612197906001600160a01b0316611f02565b906001600160a01b03821661221f575b6121ea91506121b581611815565b6040514281523391907fad7f881728ad0b1e28f5d90b6c6072865873a8cf9e08deda8ec28bc61328915e908060208101611f5c565b6040514281523391907ff30957385097ba7655e849d7b0140a25c8e1d7d9f461023d39f531ee8fafe22f908060208101611f92565b813b1561023057604051635ec9b71b60e01b81526121ea925f90829081838161224c338960048401611dd3565b03925af161225b575b506121a7565b80611fdf5f612269936102aa565b5f612255565b505f90565b1561227b57565b60405162461bcd60e51b8152602060048201526007602482015266115e1c1a5c995960ca1b6044820152606490fd5b156122b157565b60405162461bcd60e51b815260206004820152600d60248201526c496e76616c6964206e6f6e636560981b6044820152606490fd5b603c906123399360409795936001600160601b03199060601b168252731cdc1bdb9cdbdc909a5b99109b185b9ad0d85c9960621b60148301526001600160601b03199060601b166028820152019061033b565b91825260208201520190565b1561234c57565b60405162461bcd60e51b815260206004820152600d60248201526c426164207369676e617475726560981b6044820152606490fd5b604051906123906040836102aa565b600f82526e1cdc1bdb9cdbdc97d8dc99585d1959608a1b6020830152565b9293611343919461132c61240161240a956123cb81421115612274565b6001600160a01b0389165f9081526007602052604090206123ed9085906112cf565b60405192839160208301958a8c30896122e6565b51902085612822565b6001600160a01b0382165f90815260076020526040902061242b8154611a26565b9055612436816118fb565b612597576001600160a01b0382165f90815260036020526040902061245a90611624565b612597576124976124696102cb565b6001600160a01b03841681524260208201525f60408201526001606082015260016080820152611e93612381565b6124a3611eb2826103a4565b6001600160a01b0382165f9081526003602052604090206124c5908290611750565b6124d3610d45600854611a26565b600a546124e8906001600160a01b0316611f02565b906001600160a01b038216612547575b611f64915061250681611815565b6040514281526001600160a01b03909416938491907fad7f881728ad0b1e28f5d90b6c6072865873a8cf9e08deda8ec28bc61328915e908060208101611f5c565b813b1561023057604051635ec9b71b60e01b8152611f64925f9082908183816125748a8960048401611dd3565b03925af1612583575b506124f8565b80611fdf5f612591936102aa565b5f61257d565b50505f90565b6125a6816118fb565b156125d25760036125c1602060ff936040519283809261033b565b6001815203019020015460081c1690565b50600190565b906040516125e58161028a565b60a061262f60048395600180851b038154168552600181015460208601526002810154604086015260ff60038201548181161515606088015260081c16151560808601520161042b565b910152565b6033906123399360409795936001600160601b03199060601b1682526a62696e64506173736b657960a81b60148301526001600160601b03199060601b16601f820152019061033b565b6001600160a01b031680612692602a61287a565b91603061269e846128ac565b5360786126aa846128b9565b536126b5602861286c565b600181116126dd57506126c6575090565b63e22e27eb60e01b5f52600452601460245260445ffd5b90600f811660108110156103ee576127209161271a916f181899199a1a9b1b9c1cb0b131b232b360811b901a61271385886128c9565b5360041c90565b916120b5565b6126b5565b5f546001600160a01b0316330361273857565b63118cdaa760e01b5f523360045260245ffd5b926127fc906127d65f9361132c61278c6020976040519283916127868b8401968d6001600160601b03199060601b168852603485019061033b565b9061033b565b5190206040516127cd8161132c8982019485603c917f19457468657265756d205369676e6564204d6573736167653a0a3332000000008252601c8201520190565b519020916128da565b6040805194855260ff909116602085015283019190915260608201529081906080820190565b838052039060015afa1561281d575f516001600160a01b0390811691161490565b611dfb565b916127fc5f916127d66020946040516127cd8161132c8982019485603c917f19457468657265756d205369676e6564204d6573736167653a0a3332000000008252601c8201520190565b9060018201809211611a3457565b90612884826102dc565b61289160405191826102aa565b82815280926128a2601f19916102dc565b0190602036910137565b8051156103ee5760200190565b8051600110156103ee5760210190565b9081518110156103ee570160200190565b60418151036128f857602081015191606060408301519201515f1a90565b60405162461bcd60e51b815260206004820152601860248201527f496e76616c6964207369676e6174757265206c656e67746800000000000000006044820152606490fdfea26469706673582212207014c78d543de3dc91217b097123415ff41ded8b3033545bed8106b0ab1287a064736f6c634300081e0033","linkReferences":{}},"methodIdentifiers":{"authorizeOperator(string,bool)":"40749ba8","authorizedOperators(string)":"9104f2e8","batchDetectBlankCards(string[],address[])":"39797b26","bindPasskeyWithSig(string,address,uint256,uint256,bytes)":"e3fd2e3a","catNFTContract()":"8aff019a","detectAndBindBlankCard(string,address)":"500c80e9","emergencyUnbindNFCWallet(string)":"9fd3b788","getNFCBinding(string)":"b5fcabc5","getNFCHistory(string)":"815d79f5","getNonce(address)":"2d0335ab","getWalletNFC(address)":"b9aafc81","initializeBlankCard(string,string)":"220bef29","isAuthorizedOperator(string)":"db19d198","isBlankCard(string)":"7ccef9de","isNFCBound(string)":"2be5c44c","isWalletBound(address)":"14b8f1e4","nfcBindings(string)":"379e3106","nfcHistory(string,uint256)":"1d46d6e8","nonces(address)":"7ecebe00","owner()":"8da5cb5b","passkeyToWallet(string)":"3ef8d2fa","renounceOwnership()":"715018a6","selfBindBlankCard(string)":"55807838","selfBindPasskey(string)":"2a0ae6a8","setCatNFTContract(address)":"d52bb1d9","sponsorBindBlankCard(string,address,uint256,uint256,bytes)":"63a55991","totalBindings()":"e4a97b94","totalUnbindings()":"d7aff146","transferOwnership(address)":"f2fde38b","unbindNFCWallet(string,bytes)":"51893662","updateNFCMetadata(string,string)":"eb588834","walletToNFC(address)":"2c23ff5e","walletToPasskey(address)":"3691516c"},"id":45}